:020000040800F2
:10000000900C0020D5020008015F0008315700085D
:10001000FD5E0008C5150008897B0008000000008F
:10002000000000000000000000000000E56800087B
:10003000091C000800000000715F00083D6900080D
:10004000EF020008EF020008EF020008EF020008CC
:10005000EF020008EF020008EF020008EF020008BC
:10006000EF020008EF020008EF020008EF020008AC
:10007000EF020008EF020008EF020008EF0200089C
:10008000EF020008EF020008EF020008EF0200088C
:10009000EF020008EF020008EF020008EF0200087C
:1000A000EF020008EF020008EF020008EF0200086C
:1000B000EF020008F9690008EF0200083557000850
:1000C000EF02000845570008EF020008EF020008A1
:1000D000EF020008EF020008EF020008EF0200083C
:1000E000EF020008EF020008EF020008EF0200082C
:1000F000EF020008EF020008EF020008EF0200081C
:10010000000000000000000000000000EF020008F6
:100110008D6C0008EF020008EF020008EF020008F3
:10012000EF020008EF020008EF020008EF020008EB
:10013000EF020008EF0200080000000000000000CD
:10014000EF020008EF020008EF02000800000000C4
:10015000000000000000000000000000000000009F
:100160000000000000000000EF020008EF0200089D
:10017000EF02000800000000000000000000000086
:1001800000000000EF02000800F002F800F092F812
:100190000AA090E8000C82448344AAF10107DA45E2
:1001A00001D100F087F8AFF2090EBAE80F0013F0A2
:1001B000010F18BFFB1A43F001031847C4AD00003C
:1001C000E4AD0000103A24BF78C878C1FAD85207CD
:1001D00024BF30C830C144BF04680C6070470000C1
:1001E0000023002400250026103A28BF78C1FBD840
:1001F000520728BF30C148BF0B6070476E2900F01E
:10020000F381702900F0358366290AF04881652959
:100210000AF0458167290AF0428161290AF041818B
:1002200003681B0A28BF41F08001692900F0A08102
:10023000642900F09D81752900F09A816F2900F0F2
:10024000C382782900F00183E92900F05D82E42966
:1002500000F05A82F52900F05782EF2900F0C082A1
:10026000F82900F000830368DB0928BF41F0800112
:10027000632901F02780732901F02C80E32901F024
:100280003780F32901F03C80002070471FB50AF049
:10029000F4F801F08FF804000020002109F0C0FA02
:1002A000401C60600020002109F0A4FAE0601FBD3E
:1002B00010B510BD01F050F81146FFF7E7FF07F049
:1002C000C5FC01F02DF903B4FFF7F2FF03BC01F008
:1002D00071F900000948804709480047FEE7FEE73A
:1002E000FEE7FEE7FEE7FEE7FEE7FEE7FEE7FEE7E6
:1002F00004480549054A064B70470000E5690008B7
:100300008901000890060020900C00209008002031
:100310009008002053EA020C00F069802DE9F04BB0
:100320004FF00006002B1FBFB3FA83F503FA05F464
:1003300024FA05F65E4012BF1643B2FA82F502FABD
:1003400005F4C5F120051EBF22FA05FC44EA0C04A1
:10035000203556EA044C4FEA144418BF641C4FF091
:1003600000084FF00009904271EB030C39D30029CB
:1003700019BFB1FA81F701FA07F6B0FA80F700FA6F
:1003800007F6C7F120071EBF20FA07FC46EA0C0655
:100390002037B6FBF4FCA7EB0507103F07F01F0B57
:1003A000CBF120062CFA06F60CFA0BFB44BFB34641
:1003B0000026202FA4BF5E464FF0000B5BEA060C20
:1003C00008BF4FF0010B19EB0B0948EB0608ABFB1C
:1003D000027C06FB02CC0BFB03CCC01B71EB0C01B7
:1003E000C1E70B46024641464846BDE8F08B13B5CF
:1003F000084318BF4FF0FF300146AFF30080BDE85F
:100400001C4070470FB41CB5084B06AA7B446946D4
:100410000090059800F001F904460020694600F0BC
:100420000FF920461CBC5DF814FB000031020000EF
:1004300002F0FF0343EA032242EA024200F0EABA72
:100440004FF0000200B5134694469646203922BF6D
:10045000A0E80C50A0E80C50B1F12001BFF4F7AFB8
:10046000090728BFA0E80C5048BF0CC05DF804EB9A
:10047000890028BF40F8042B08BF704748BF20F808
:10048000022B11F0804F18BF00F8012B7047704706
:100490007047704710B500F0DDFA006810BD10B568
:1004A000044600F0D7FA046010BD70B504468569B3
:1004B0000068C10601D5302600E02026C00707D01D
:1004C00070BDD4E9012130469047206A401C20626B
:1004D0006D1EF6D570BD70B5044685690078C007FD
:1004E00007D170BDD4E9012120209047206A401C2B
:1004F00020626D1EF6D570BD09684A0501D540B26F
:100500007047C905FCD500B2704709684A0501D596
:10051000C0B27047C905FCD580B2704770B50C46B3
:100520000546012A05D02878800600D5EA6900230F
:1005300002E0012305E05B1C934202D2E05C00284C
:10054000F9D1A869E618C01AA861286A1844286277
:100550002846FFF7AAFF04E0D5E9012114F8010BB2
:100560009047B442F8D32846FFF7B5FF70BD0000AE
:100570002DE9F0410646002410687529314616A57C
:1005800010D0FFF7B9FF002802DA404213A507E0B8
:1005900031688A0701D512A502E0490704D511A5E3
:1005A000012401E0FFF7B1FF00210A2206F1240730
:1005B00009E0B0FBF2FCB0FBF2F302FB1C003030B0
:1005C00078541846491C0028F3D123462A46304661
:1005D000BDE8F04100F087BA000000002D000000E7
:1005E0002B0000002000000011680268006A53051B
:1005F00001D508700AE0D30501D5088006E013068E
:1006000003D5C217C1E9000200E00860012070476D
:1006100001694A1C02610878704700B58FB0CDE9C6
:1006200001310021059105497944CDE903101146B6
:10063000684600F029F90FB000BD0000E5FFFFFF9C
:100640000A6802F8010B0A60704700002DE9FF5F9D
:1006500015468A460446DFF8AC80F8440027D8E9FE
:1006600000103E46CDE9001010E03AF816106A4638
:1006700002A800F049FE411C07D02178890603D565
:10068000E269391891420DD80744761C207880061B
:1006900002D5E069B84205DDAE42E6DB3AF8160065
:1006A0000028E2D1A069C01BA0612046FFF7FDFE33
:1006B000D8E90010CDE90010002017E03AF8181032
:1006C0006A4602A800F020FEB0F1FF3F81460BD041
:1006D00000250DF1080B05E0D4E901211BF8050008
:1006E00090476D1C4D45F7D308F10100B04280469C
:1006F000E4DB206A384420622046FFF7ECFEBDE8C8
:10070000FF9F00009A9E00002DE9F0418046D21D17
:1007100022F007020025D2E90002F52915A614D01F
:10072000011E72F1000106DA0023D0EB030063EB37
:10073000020211A608E0D8F800108B0701D50FA619
:1007400002E0490701D50EA601251146002408F153
:10075000240704E000F082F930323A55641C50EA74
:100760000102F7D12B46324621464046BDE8F04112
:1007700000F0B9B9000000002D0000002B000000BF
:100780002000000030B4002100F1240408E002F051
:100790000705D208303542EA4372DB086554491C2C
:1007A00052EA0305F3D10468002310A2250708D5F7
:1007B00004F020040C4304D0C46901230CA2641E7D
:1007C000C46130BC00F08FB910B5044621461068F2
:1007D000FFF79BFE02462046BDE810400023D1E70C
:1007E000D21D22F00701D1E90023CBE70000000071
:1007F00030000000F0B40D460188090502D5214CF7
:100800007C4402E01F4C7C440E34002100F124069D
:1008100008E002F00F071209E75D42EA03721B09C4
:100820007754491C52EA0307F3D1027800231207D8
:1008300004D5702D06D009B1022311342246F0BC34
:1008400000F051B901231034F8E770B504460D46A5
:1008500021461068FFF759FE024629462046BDE8AA
:1008600070400023C6E7D21D22F00703D3E900231E
:10087000C0E70368126843F0200303600823C361E4
:100880000023B7E7FC9C00002DE9F05F8946044691
:100890004FF0000ADFF874B1FB44C0F820A02046F6
:1008A000E1688847002874D0252806D0D4E90121C2
:1008B0009047206A401C2062F1E700265F462046F0
:1008C000E16888472028054607DB312D05D27819D5
:1008D00010F8200C08B10643F1E7B00701D526F067
:1008E0000406C4F81CA00027C4F818A02A2D09D0BB
:1008F000284608F02DFF38B304EB8708303DC8F8D0
:10090000185019E059F8041B204604EB8702916146
:10091000E1688847012F054618D1E069002820DAF0
:1009200026F020061DE0D8F8180000EB800005EB4B
:1009300040003038C8F818002046E168884705466E
:1009400008F006FF0028EED1012F0AD02E2D08D185
:100950002046E16888477F1C0546022F46F02006A6
:10096000C4DBA069002803DA404246F00106A0611A
:10097000F00701D026F010066C2D0BD0682D09D0A1
:100980004C2D39D06A2D35D0742D35D07A2D33D0F9
:1009900016E038E0E1682F4620468847B842054611
:1009A00009D16C2F26D04FF48060E16806432046C1
:1009B0008847054604E06C2F1AD04FF48070064338
:1009C0000DB3A5F14100192802D8203546F4006680
:1009D0004A462946204626604E46FFF70FFC80B166
:1009E00001280BD0F61D26F0070000F1080956E794
:1009F0004020E4E78020D8E70020D6E706F104098C
:100A00004DE7284652E7206ABDE8F09F8C9C000025
:100A10004FF000020429C0F0128010F0030C3FF4E4
:100A200011ADCCF1040CBCF1020F18BF00F8012B82
:100A3000A8BF20F8022BA1EB0C01FFF703BD5FEA72
:100A4000C17C24BF00F8012B00F8012B48BF00F83F
:100A5000012B7047004870471800002030B5B0F1F6
:100A60000A0271F100034FEA900E4EEA817EB0EB6C
:100A70000E0061EB91014FEA101E4EEA017E10EB71
:100A80000E0041EB11114FEA102E4EEA016E10EBF1
:100A90000E0041EB11214FEA104E4EEA014E10EBD1
:100AA0000E0041EB1141401841F100014FEAD00026
:100AB00040EA41704FEAD1014FEA810444EA907460
:100AC00010EB800544EB01046D1944EB0404521B48
:100AD000A3414FF0000348BF0A3200D530BD401C8F
:100AE00041F1000130BD2DE9F0470D46994692468F
:100AF000044600F124080168880604D5E06921F065
:100B00001001216000E00120A84201DD471B00E048
:100B10000027A1697A1902EB0900081AA061207860
:100B2000C00602D42046FFF7C0FC002608E0D4E946
:100B300001211AF806009047206A401C761C2062AA
:100B40004E45F4DB2078C0060AD52046FFF7ADFC01
:100B500006E0D4E9012130209047206A401C206241
:100B6000381EA7F10107F4DC07E0D4E9012118F8E9
:100B700005009047206A401C2062281EA5F101054F
:100B8000F3DC2046FFF7A7FC2078000602D5022000
:100B9000BDE8F0870120FBE72DE9FF4F0C461E461C
:100BA0004FF0FF378BB0D2E90001DDF860800A908A
:100BB0008A46C1F30A5505B93D46002108464FF063
:100BC0000000BAF1000F00F4400005DA00EB8000ED
:100BD0004FF4400101EA50004FEA9059B9F1010F7A
:100BE00000DDB9460A9850EA4A000ED044F610508B
:100BF000A5F2FF3545432F14B8F1000F1ED0754202
:100C0000291E1EDDC9F100021CE0B8F1010F4FF0F2
:100C1000000001D0302103E0F24305E02154401CE4
:100C2000B042FBDB30460022002121540B99C1F871
:100C30000880C1E900200FB0BDE8F08FBD1B6D1C1E
:100C4000DEE74A4600DA694206A800F0F7FB06AB89
:100C500093E8070003AB83E8070050460A9907F0C2
:100C600095F88DE80700A0F500501F380090039814
:100C7000002D0ADD42F21F014A460844002303A961
:100C80000390684607F0FEFA09E0A0F500504A46D6
:100C90001F38002303A90390684607F008FB8DE87E
:100CA00007000004000C03D04FF0FF30410800E0C3
:100CB0001046B8F1000F03D00022009215461EE046
:100CC000751E05D4FFF7CAFE303262556D1EF9D588
:100CD000B3460122084302D000227F1C04E02078A2
:100CE000302801D100227F1E002A099784D01DE000
:100CF000112D07DAFFF7B2FE303262556D1C50EA53
:100D00000102F5D1084302D00098C8B10EE00021DD
:100D1000681E05E0235C625C63542254401E491C3B
:100D20008142F7DBAB46A81B401E0990002004F867
:100D30000B000B98099AC0F80880C0E9002B7AE7ED
:100D400011264FF0000857E72DE9F04F884604467A
:100D5000D21D22F0070191B0D1E90001CDE90A01CD
:100D600007F0DCFB02460B98C00F01D02D2007E0F6
:100D70002068810701D52B2002E0202101EAC00074
:100D8000032A099001D0072A05DB03464146204685
:100D900000F014FB0BE12078800601D5E06900E04B
:100DA0000620B8F1650F814606D0B8F1660F18D05D
:100DB000B8F1670F70D131E00020B9F1110F009048
:100DC00001DB112301E009F101030AAA01A90CA822
:100DD000FFF7E2FEDDE90C70002609F1010583460C
:100DE00047E001204B4600904FF000470AAA01A9B6
:100DF0000CA8FFF7D1FEDDE90DB00C995D46002689
:100E000010B909F101000D18B9EB050003D4C0F1C8
:100E1000FF3609F10105A5EB09002BE0B9F1010F3F
:100E200001DA4FF001090020B9F1110F0090484696
:100E300001DD112300E003460AAA01A90CA8FFF76F
:100E4000ABFEDDE90C704D46002683462078000796
:100E50000AD4AB4500DA5D4601A8012D04DD411935
:100E600011F8011C302907D04F4502DA17F1040FA1
:100E700004DA012082460FE06D1EEEE7002F02DC4F
:100E8000ED1B3E4403E0781CA84200DD7D1CB81B2E
:100E900000F1010A4FF000472078000703D4AA456B
:100EA00001DB4FF0FF3A0021B7F1004F0DF143088D
:100EB0008DF8431024D002202B23002F01DA7F422B
:100EC0002D230A21021EA0F1010000DC5FB197FB77
:100ED000F1FC97FBF1F201FB1C7C17460CF1300C86
:100EE00008F801CDEEE7A8F101000370218809059B
:100EF00001D5452100E06521A0F1010800F8011CA1
:100F000009980FA9A1EB0807FF1D00B101204119A5
:100F100001EBEA70A1693844081A401EA0612078EC
:100F2000C00602D42046FFF7C0FA099828B1D4E9D8
:100F300001219047206A401C20622078C00622D5FB
:100F40002046FFF7B2FA1EE0002E04DBB34502DDB7
:100F500001A8805D00E03020D4E901219047206A9B
:100F6000401C2062761CAAF101005FEA000A0AD147
:100F700000F020FAC0680168405CD4E90121904784
:100F8000206A401C2062281EA5F10105DCDC07E078
:100F9000D4E9012118F8010B9047206A401C206217
:100FA000381EA7F10107F3DC2046FFF794FA03206F
:100FB00011B041E62DE9F04F04460D46D21D22F056
:100FC000070089B0D0E900974846394607F0A6FAED
:100FD0000246F80F01D02D2307E02068810701D5D4
:100FE0002B2302E0202101EAC0038DF820300BB151
:100FF000012000E00020032A824601D0072A04DBFA
:101000002946204600F0DAF93FE12078800601D435
:101010000D2500E0E569C7F30A560D2D49DA0021D8
:101020004FEA175B08464FF00000002F00F4400025
:1010300007DA00EB80004FF4400100EBD07001EACA
:1010400060008115012901DD4FF0FF3100224FEAD8
:10105000850CBCF1180F06D31346ACF118004FF005
:101060008052C24003E04FF4801323FA0CF30CF1DA
:101070000C0CBCF1200F04D3ACF1200C09FA0CF0DD
:1010800001E007FA0CF000294FF0004801DD18B923
:101090000FE00ED140450CD319EB02095F4121B995
:1010A000404502D19F4329EA0209BBEB175F00D0FC
:1010B000761C2088000502D57B48784402E07A48F7
:1010C0007844193808AA302302F80A30037C0AF160
:1010D0000101002E0AF1020A53546A4602DC4FF065
:1010E000300101E04FF031014FF001088DF80010A0
:1010F00002D0A6F2FF3603E059EA470100D06B4E5A
:10110000002D02DC2178090704D54FF002082E21BA
:101110008DF80110C44600210BE0C7F303433F01E3
:10112000C35C491C6D1E02F80830052908F101084E
:1011300001DA002DF1DC00210CE000EB1973491CF1
:101140001B786D1E082902F808304FEA091908F1CA
:10115000010801DA002DF0DC21688B0602D516E0CB
:10116000A8F10108E04505DD02EB080313F8013C96
:10117000302BF5D0B8F1000F09DD02EB080313F8AE
:10118000013C2E2B03D1090701D4A8F10108002D41
:1011900005DD3E2102F808106D1E08F10108407CB3
:1011A000002E02F8080008F1010804DA2D2076422A
:1011B00002F8080002E02B2002F808000A214FF490
:1011C0007A70864208F101080BDB96FBF0F33033AE
:1011D00002F8083096FBF0F308F1010800FB1366F3
:1011E00001E0642E0CDB642096FBF0F3303302F850
:1011F000083096FBF0F308F1010800FB136601E0EC
:101200000A2E06DB96FBF1F0303002F8080008F1F8
:10121000010896FBF1F001FB1060303002F8080085
:10122000A16908F1010808EB050202EB0A00081A9F
:10123000A0612078C00602D42046FFF736F9216A63
:1012400008AE01EB0A00206204E0D4E9012116F89F
:10125000010B9047BAF1010AF7D22078C00602D5F7
:101260002046FFF722F96E4609E016F8010B3E28EA
:101270000FD0D4E901219047206A401C2062B8F1C8
:101280000108F2D22046FFF726F909B00320BDE895
:10129000F08F206A2844206203E0D4E90121302045
:1012A00090476D1EEBD3F8E75D96000002FCFFFF50
:1012B00010B5436913B1AFF3008001E0FFF72EF9D9
:1012C000012010BD127800F124010A7000224A703A
:1012D0000122EDE711684FF0FF32E9E710B54369ED
:1012E00013B1AFF3008001E0FFF7B0F9012010BDAA
:1012F000128800F1240182840022C2840122EDE7D9
:1013000011684FF0FF32E9E72DE9F04116460C462F
:10131000054600F047F8036893F80101012807D05B
:10132000FF2C12D8185D80B101202C70BDE8F0812F
:10133000D3F807013246214603F20713C71828469F
:10134000BC46BDE8F041002360474FF0FF30EDE7B9
:1013500000487047180000207546FFF7F9FFAE46B9
:1013600005006946534620F00700854618B020B5B1
:10137000FEF7BEFFBDE820404FF000064FF000072B
:101380004FF000084FF0000BAC46ACE8C009ACE8E9
:10139000C009ACE8C009ACE8C00921F007018D46DE
:1013A0007047000010B500F005F8001D10BD00BF2B
:1013B0007184000000487047380000202DE9F0419A
:1013C0001F46044603260168072A01F4006004DB77
:1013D00008B116A505E016A503E008B115A500E0C3
:1013E00015A521F010002060A069C01EA0610FB1FA
:1013F000401EA0612046FFF758F84FB1D4E9012103
:1014000038469047206A401C2062C01C206206E0DB
:10141000206AFAE7D4E9012115F8010B9047761EFE
:10142000F8D22046FFF757F8BDE8F0814E414E0054
:101430006E616E00494E4600696E66002DE9F04708
:10144000814616468AB0354878440DC88DE80D00AF
:1014500032487844801C03AC0DC884E80D0041F686
:101460009B300844372190FBF1F290FBF1F5A5F198
:10147000800501FB12041B3C02D56442012000E000
:101480000020DFF898A080460027FA44AAF1BE0A9F
:101490000EE0E0070AD03246684607EB4701012319
:1014A0000AEB810106F003FF8DE8070064107F1C42
:1014B000002CEED1194F7F44AE3F19E0E80715D05C
:1014C00007EB04100DF1180A90E80E008AE80E00F0
:1014D000C068F04201D1981908903246012306A94C
:1014E00003A806F0E4FE03AB83E807006D10641C5C
:1014F000002DE3D14FF0010332466946B8F1000FE9
:1015000003A802D006F0BEFE01E006F0D0FEC9E955
:101510000001C9F808200AB0BDE8F0876093000018
:1015200010B50446AFF300802046BDE81040FEF73A
:10153000CABE00000000000030B44FF0013C50F87B
:10154000042B51F8043BCCFA52F4D51A20D1FCB943
:1015500050F8042B51F8043BCCFA52F4D51A17D1A9
:10156000B4B950F8042B51F8043BCCFA52F4D51A14
:101570000ED16CB950F8042B51F8043BCCFA52F45C
:10158000D51A05D1002CDAD030BC4FF000007047DE
:1015900029BAB1FA81F111F01801D1F1200084408B
:1015A000F2D1CA40CB4012F0FF0213F0FF0330BC6F
:1015B000D01A704701491820ABBEFEE72600020092
:1015C00070470000FFE7FEE7B0B5CAB040F25C63C9
:1015D000C2F20003186840F23464C2F200042168C9
:1015E00090FBF1F0186040F26462C2F200021068F1
:1015F000216890FBF1F0106040F26C61C2F20001D2
:101600000868D4F800C090FBFCF0086040F2A840E5
:10161000C2F20000D0F800C0D4F800E09CFBFEFC51
:10162000C0F800C040F2B04EC2F2000ECDF808E0A3
:10163000DEF800C025689CFBF5FCCEF800C040F247
:10164000B84EC2F2000EDEF800C024689CFBF4FC29
:10165000CEF800C093ED000AB8EEC00A9FEDFB1A69
:1016600080EE010A40F28803C2F200032A9383ED60
:10167000000A92ED000AB8EEC00A80EE010A40F2BC
:101680009002C2F20002389282ED000A91ED000A47
:10169000B8EEC00A9FEDEE1A80EE010A40F2980102
:1016A000C2F200011F9181ED000A90ED000AB8EE30
:1016B000C00A9FEDE81A8DED011A80EE010A30EEA6
:1016C000000A10EE100A80F0004008F065FE41ECC0
:1016D000100B06F03DFF51EC100B08F0C3F89DED28
:1016E000011A0146029840F25862C2F200023E928C
:1016F000116090ED000AB8EEC00A80EE010A30EEEB
:10170000000A10EE100A08F047FE02463E980392C7
:101710000A46039942EC101B8DED040B006808F09B
:101720003BFE41EC100B07F02FFB9DED041B51EC31
:10173000110B53EC102B08F07BF941EC100B06F069
:1017400007FF51EC100B08F08DF801462A9840F283
:101750008062C2F200023A921160006808F01CFE3A
:1017600002463E9806920A46069942EC101B8DED01
:101770000A0B006808F010FE41EC100B07F004FBA8
:101780001F988DED0C0B006808F006FE02463E988F
:1017900007920A46079942EC101B8DED080B006872
:1017A00008F0FAFD41EC100B07F052FB9DED081B11
:1017B00051EC110B53EC102B08F02AFB9DED0A1B8A
:1017C0009DED0C0B41EC120B8DED0E2B51EC110B22
:1017D00053EC102B08F01CFB9DED0E0B41EC110B94
:1017E00051EC110B53EC102B08F06EF841EC100B80
:1017F00051EC100B08F036F801462A9840F28C02A2
:10180000C2F2000246921160006808F0C5FD02466F
:101810003A9811920A46119942EC101B8DED120B69
:10182000006808F0B9FD41EC100B07F011FB9DEDCD
:10183000121B51EC110B53EC102B08F0E9FA024685
:101840003E9814920A46149942EC101B8DED180B29
:10185000006808F0A1FD41EC100B07F0F9FA389888
:101860008DED1A0B006808F097FD02463A98159224
:101870000A46159942EC101B8DED160B006808F016
:101880008BFD41EC100B07F07FFA9DED161B51EC20
:10189000110B53EC102B08F0BBFA9DED181B9DEDBE
:1018A0001A0B41EC120B8DED1C2B51EC110B53EC70
:1018B000102B08F0ADFA9DED1C0B41EC110B51EC17
:1018C000110B53EC102B07F0FFFF02461F982092DC
:1018D0000A46209942EC101B8DED280B006808F099
:1018E0005BFD02463A9821920A46219942EC101B70
:1018F0008DED220B006808F04FFD41EC100B07F056
:10190000A7FA9DED221B51EC110B53EC102B08F0A4
:101910007FFA02463E9825920A46259942EC101B12
:101920008DED260B006808F037FD41EC100B07F039
:101930002BFA9DED261B51EC110B53EC102B08F0EC
:1019400067FA9DED280B02460B4651EC100B43EC59
:10195000102B53EC102B08F031FC41EC100B51EC28
:10196000100B07F07FFF01462A9840F29402C2F262
:10197000000245921160006808F00EFD02463A9898
:101980002B920A462B9942EC101B8DED2C0B006814
:1019900008F002FD41EC100B07F0F6F99DED2C1B51
:1019A00051EC110B53EC102B08F032FA02463E9822
:1019B0002E920A462E9942EC101B8DED320B0068D8
:1019C00008F0EAFC41EC100B07F042FA38988DED74
:1019D000340B006808F0E0FC02463A982F920A4661
:1019E0002F9942EC101B8DED300B006808F0D4FCF1
:1019F00041EC100B07F02CFA9DED301B51EC110B54
:101A000053EC102B08F004FA9DED321B9DED340BC6
:101A100041EC120B8DED362B51EC110B53EC102BCE
:101A200008F0F6F99DED360B41EC110B53EC112B40
:101A300051EC100B08F0C2FB0246389839920A4666
:101A4000399942EC101B00F007B800BF00808944B0
:101A500000007544000000478DED420B006808F05F
:101A60009BFC02463A983B920A463B9942EC101B7B
:101A70008DED3C0B006808F08FFC41EC100B07F07B
:101A800083F99DED3C1B51EC110B53EC102B08F02E
:101A9000BFF902463E983F920A463F9942EC101B1E
:101AA0008DED400B006808F077FC41EC100B07F05F
:101AB0006BF99DED401B51EC110B53EC102B08F012
:101AC000A7F99DED420B53EC102B41EC100B51ECA0
:101AD000100B07F0F9FE41EC100B51EC100B07F066
:101AE000C1FE0146459840F29C02C2F2000211601C
:101AF000006808F051FC0246469847920A4647990A
:101B000042EC101B8DED480B006808F045FC9DED84
:101B1000480B41EC110B07F037F851EC100B9FED1F
:101B2000360B53EC102B08F073F941EC100B51EC11
:101B3000100B9FED330B53EC102B07F079FF41ECAA
:101B4000100B51EC100B08F009F9014640F2780037
:101B5000C2F20000016040F2C041C2F200010A6816
:101B6000016811440160036846F2B701CBF20B61D2
:101B700051FB0332111201EBD2714FF4B47201FB2D
:101B8000123101600068B0F1FF3F09DCFFE740F26D
:101B90007801C2F20001086800F5B4700860FFE740
:101BA00040F23461C2F200010020086040F25C6142
:101BB000C2F20001086040F26461C2F200010860F4
:101BC00040F26C61C2F20001086040F2A841C2F22A
:101BD0000001086040F2B041C2F20001086040F22A
:101BE000B841C2F20001086040F27800C2F2000081
:101BF00000684AB0B0BD00BF000000000080664031
:101C000000000060B81E09407047000081B0EFF38B
:101C1000108072B60090FFE7FEE7000040F23861E6
:101C2000C2F200010020C86142F21001C4F20201B8
:101C3000086840F004000860086840F04000086050
:101C40007047000081B0009040F23861C2F200019C
:101C50000020C86142F21001C4F20201086840F09D
:101C600002000860009842F21402C4F202021060FE
:101C7000086840F04000086001B0704782B00190F1
:101C8000ADF8021040F23861C2F200010020C861D4
:101C900042F21001C4F20201086840F0010008603D
:101CA000BDF802000199088002B0704781B00020A1
:101CB000009042F20C00C4F202000068C006002846
:101CC0000DD5FFE740F23861C2F20001C86940F06B
:101CD0000200C861009840F010000090FFE742F257
:101CE0000C00C4F202000068400700280DD5FFE791
:101CF00040F23861C2F20001C86940F00100C861D9
:101D0000009840F004000090FFE7009842F20C01B8
:101D1000C4F20201086001B07047000080B584B0D1
:101D2000029000F043FD0190FFE742F20C00C4F284
:101D300002000068C007A8B1FFE70298013080B137
:101D4000FFE7029840B1FFE700F030FD0199401A2B
:101D50000299884204D9FFE703208DF80F002EE096
:101D6000FFE7E2E742F20C00C4F2020000688006DE
:101D7000002807D5FFE742F20C01C4F2020120203F
:101D80000860FFE742F20C00C4F20200006800F0B5
:101D90001000102809D0FFE742F20C00C4F2020044
:101DA00000684007002806D5FFE7FFF77FFF012006
:101DB0008DF80F0003E000208DF80F00FFE79DF87D
:101DC0000F0004B080BD000083B002900191ADF817
:101DD0000220FFE702980068019908600298043029
:101DE0000290019804300190BDF80200411EADF848
:101DF000021008B9FFE700E0ECE703B0704700000D
:101E000080B58AB008900791ADF81A2000200090A4
:101E1000049000F0E1FA0099089803900898BDF842
:101E20001A2000EB820002900298019040F27C00A0
:101E3000C2F200000160039941600199039A8A1A75
:101E4000012101EBD221816005A900F09BF920B1AD
:101E5000FFE700F01BFA099022E0FFE70498BDF8C5
:101E60001A10884217DAFFE708990798049A50F881
:101E700022200220002300F019FA38B9FFE7089861
:101E80000430089004980130049003E000F0FEF95B
:101E9000099005E0E2E700F0FFF900200990FFE774
:101EA00009980AB080BD0000B0B58CB040F28462E1
:101EB000C2F2000202922020107077205070694612
:101EC00001200390086040F2C840C2F20000069072
:101ED00032210191022300F0DFFF0199029A039B56
:101EE0008446069840F28764C2F200040A9484F89B
:101EF00000C04FF0A80C82F800C0EC46CCF80030CF
:101F000000F0CAFF0199039A0346069823706B46B6
:101F10001A6040F27262C2F2000207920623059331
:101F200000F0ACFE029A039BDDF81CC00146069847
:101F300021709CF800109CF801E041EA0E2140F26B
:101F4000AC4EC2F2000ECDF820E0AEF800109CF8C6
:101F500002109CF803E041EA0E2140F2B44EC2F2B6
:101F6000000ECDF824E0AEF800109CF804109CF8A8
:101F700005C041EA0C2140F2BC4CC2F2000CCDF885
:101F80002CC0ACF800100321117069460B603C2195
:101F9000049100F081FFDDF80CC00499059B079ABD
:101FA0008646069884F800E0EE46CEF800C000F0C1
:101FB00065FEDDF81CC0089A0999DDF828E00346A3
:101FC0000B988EF800309CF800E09CF8013043EA52
:101FD0000E2340F2606EC2F2000EAEF800309CF8A4
:101FE00002409CF8033043EA042440F27063C2F2DA
:101FF00000031C809CF804409CF805C04CEA0424B3
:1020000040F2686CC2F2000CACF8004040F234655B
:10201000C2F200052C6801342C60BEF9005040F279
:102020005C64C2F20004D4F800E0AE44C4F800E0FE
:10203000BCF9004040F2646EC2F2000EDEF800C04F
:10204000A444CEF800C0B3F900E040F26C6CC2F2D8
:10205000000CDCF800307344CCF80030B2F900C05A
:1020600040F2A843C2F200031A6862441A60B1F950
:10207000003040F2B042C2F200021168194411600F
:10208000B0F9002040F2B841C2F2000108681044E3
:1020900008600CB0B0BD000082B00090009890F8CD
:1020A000210002280DD0FFE7009904208863FFE794
:1020B0000099002081F82000FFE701208DF807003B
:1020C00020E000980168086820F00E000860009881
:1020D0000168086820F0010008600098C16B026C7C
:1020E000012090404860FFE70099012081F821001D
:1020F000FFE70099002081F82000FFE700208DF81D
:102100000700FFE79DF8070002B0704780B582B076
:10211000019000208DF80300019890F8210002281A
:1021200007D0FFE701990420886301208DF80300A0
:1021300024E001980168086820F00E00086001980A
:102140000168086820F0010008600198C26B016C0A
:10215000012000FA01F15160019981F82100FFE7A7
:102160000199002081F82000FFE70198406B20B121
:10217000FFE70198416B8847FFE7FFE79DF8030001
:1021800002B080BD80B586B00490039101208DF827
:102190000B0000200190FFE740F23860C2F200001F
:1021A000007E012804D1FFE702208DF8170069E0C6
:1021B00040F23861C2F2000101200876FFE7FFE734
:1021C00004980068012818D1FFE74CF25030FFF75F
:1021D000A5FD88B9FFE7FFF721FD4CF25030FFF76E
:1021E0009DFD8DF80B0042F21001C4F20201086857
:1021F00020F004000860FFE737E04CF25030FFF7B2
:102200008DFD88BBFFE703994FF0FF30086004980D
:1022100040680190FFE70198049A5168926801EBC9
:10222000C22188421FD2FFE70198FFF70BFD4CF255
:102230005030FFF773FD8DF80B0042F21001C4F22D
:102240000201086820F0020008609DF80B0020B130
:10225000FFE701980399086005E0FFE7019800F5A2
:1022600000600190D7E7FFE7FFE7FFE740F2386142
:10227000C2F2000100200876FFE79DF80B008DF800
:102280001700FFE79DF8170006B080BD40F23860E8
:10229000C2F20000C069704742F21001C4F20201AC
:1022A000086840F0800008600020704780B588B062
:1022B000069005910393029201208DF807000020FB
:1022C0008DF806008DF80500FFE740F23860C2F295
:1022D0000000007E012804D1FFE702208DF81F00D6
:1022E00076E040F23861C2F2000101200876FFE793
:1022F000FFE74CF25030FFF711FD8DF807009DF815
:102300000700002857D1FFE70698012804D1FFE70E
:1023100001208DF805000CE00698022804D1FFE7A3
:1023200002208DF8050003E004208DF80500FFE78A
:10233000FFE700208DF80600FFE79DF806009DF8F6
:102340000510884236DAFFE705989DF806C000EBD5
:102350004C000299039A4FEA0C1E2023A3EB0C13A6
:1023600002FA03F321FA0EF119436FF01F0303EB96
:102370000C13DA40002B58BF114689B2FFF77EFCE0
:102380004CF25030FFF7CAFC8DF8070042F2100102
:10239000C4F20201086820F0010008609DF80700FF
:1023A00008B1FFE706E0FFE79DF8060001308DF871
:1023B0000600C2E7FFE7FFE740F23861C2F2000122
:1023C00000200876FFE79DF807008DF81F00FFE763
:1023D0009DF81F0008B080BD81B000208DF803007B
:1023E00042F21000C4F202000068000600281CD56A
:1023F000FFE742F20401C4F2020140F22310C4F2EA
:102400006750086048F6AB10CCF6EF50086042F217
:102410001000C4F2020000680006002804D5FFE79F
:1024200001208DF80300FFE7FFE79DF8030001B0EE
:10243000704700008AB00990089100200790FFE7DC
:10244000089800680799C840002800F09781FFE7C6
:1024500008980068079A0121914008400690069864
:10246000002800F08781FFE70898406800F003002B
:10247000012807D0FFE70898406800F00300022811
:102480002FD1FFE709988068059007984100032045
:1024900000FA01F10598884305900898C0680799EB
:1024A000490000FA01F1059808430590059809993B
:1024B00088600998406805900799012000FA01F1A9
:1024C00005988843059008984068C0F30010079964
:1024D00000FA01F1059808430590059809994860AC
:1024E000FFE70898406800F00300032818D0FFE7D2
:1024F0000998C068059007984100032000FA01F18F
:10250000059888430590089880680799490000FA63
:1025100001F105980843059005980999C860FFE7FF
:102520000898406800F00300022826D1FFE70998C8
:1025300007996FF0030202EA51010844006A05900E
:10254000079800F0070081000F2000FA01F10598BC
:102550008843059008980069079901F007018900F0
:1025600000FA01F105980843059005980999079B21
:1025700002EA530211440862FFE7099800680590D7
:1025800007984100032000FA01F10598884305905F
:102590000898406800F003000799490000FA01F12B
:1025A000059808430590059809990860089880796E
:1025B0008007002800F0DD80FFE7FFE741F2180008
:1025C000C4F20200016841F001010160006800F0FE
:1025D000010004900498FFE7079820F00300082109
:1025E000C4F2010140580590079800F003008100F3
:1025F0000F2000FA01F10598884305900998B0F181
:10260000904F03D1FFE70020039034E0099840F297
:102610000041C4F60001884203D1FFE70120029087
:1026200026E0099840F60001C4F60001884203D173
:10263000FFE70220019018E0099840F60041C4F637
:102640000001884203D1FFE7032000900AE00999C6
:1026500041F20002C4F600020520914208BF0420A6
:102660000090FFE700980190FFE701980290FFE7D4
:1026700002980390FFE70398079901F0030189008E
:1026800000FA01F10598084305900598079921F093
:1026900003010822C4F20102885040F20040C4F253
:1026A00001000068059006990598884305900898F0
:1026B0008079C00728B1FFE706990598084305907F
:1026C000FFE7059840F20041C4F20101086040F2C2
:1026D0000440C4F2010000680590069905988843FB
:1026E0000590089880798007002805D5FFE70699AE
:1026F000059808430590FFE7059840F20441C4F2AD
:102700000101086040F20840C4F201000068059031
:10271000069905988843059008988079C006002896
:1027200005D5FFE70699059808430590FFE705984A
:1027300040F20841C4F20101086040F20C40C4F2CA
:10274000010000680590069905988843059008984F
:1027500080798006002805D5FFE70699059808438B
:102760000590FFE7059840F20C41C4F201010860B2
:10277000FFE7FFE707980130079061E60AB070476E
:1027800082B00190ADF802108DF801209DF8010093
:1027900028B1FFE7BDF802000199886104E0BDF8A7
:1027A000020001998862FFE702B0704740F288603A
:1027B000C2F200000068704783B001900091019858
:1027C00090F8410020283BD1FFE7FFE7019890F8FF
:1027D0004000012804D1FFE702208DF80B0033E010
:1027E0000199012081F84000FFE7FFE701992420CB
:1027F00081F8410001980168086820F00100086034
:1028000001980168086820F480500860009A0198D7
:10281000016808681043086001980168086840F082
:10282000010008600199202081F84100FFE701992B
:10283000002081F84000FFE700208DF80B0003E046
:1028400002208DF80B00FFE79DF80B0003B07047E6
:1028500084B002900191029890F84100202840D164
:10286000FFE7FFE7029890F84000012804D1FFE756
:1028700002208DF80F0038E00299012081F8400015
:10288000FFE7FFE70299242081F8410002980168E0
:10289000086820F001000860029800680068009055
:1028A000009820F4706000900199009840EA01209F
:1028B0000090009802990968086002980168086809
:1028C00040F0010008600299202081F84100FFE7F4
:1028D0000299002081F84000FFE700208DF80F00EA
:1028E00003E002208DF80F00FFE79DF80F0004B011
:1028F0007047000080B584B0039003980068806939
:10290000029003980068006801900398406B30B112
:10291000FFE70398436B0299019A9847FFE704B0D9
:1029200080BD000080B582B00090009820B9FFE71C
:1029300001208DF8070073E0009890F8410040B93D
:10294000FFE70099002081F84000009800F0B2FBFA
:10295000FFE70099242081F8410000980168086889
:1029600020F00100086000980168406820F0706065
:10297000086100980168886820F400408860009829
:10298000C068012807D1FFE700980168806840F41B
:102990000040886006E000980168806840F40440C8
:1029A0008860FFE70098C068022806D1FFE700981A
:1029B00001684FF400604860FFE7009801684868CC
:1029C00048F20002C0F200221043486000980168FB
:1029D000C86820F40040C860009A11681069536903
:1029E0009269184340EA0220C860009A1168D069D1
:1029F000126A1043086000980168086840F00100FE
:102A00000860009900204864009A202182F8411053
:102A100000990863009981F842008DF80700FFE7EC
:102A20009DF8070002B080BD80B58CB00A90ADF86B
:102A3000261008920793002005900A9890F841000C
:102A4000202840F01281FFE70A980068806981B26F
:102A50000120B0EBD13F04D1FFE702208DF82F0019
:102A600007E1FFE70A9890F84000012804D1FFE74A
:102A700002208DF82F00FCE00A99012081F8400027
:102A8000FFE7FFE70A99242081F841000A99002016
:102A90004864FFE70A98C068012808D1FFE7BDF83D
:102AA000260048F2080161F39F20039006E0BDF87C
:102AB00026000A2161F39F200390FFE703980A99FB
:102AC00009684860FFF772FE06900A9800688069FE
:102AD000C0F340108DF813000A9800688069C0F3B5
:102AE00000108DF81200FFE79DF8131000200290EF
:102AF00039B9FFE79DF81200B0FA80F04009029062
:102B0000FFE70298C00790B3FFE707980130F8B1DC
:102B1000FFE7FFF74BFE0699401A0799884203D852
:102B2000FFE7079898B9FFE70A99202081F841004C
:102B30000A99486C40F020004864FFE70A99002099
:102B400081F84000FFE701208DF82F0091E0FFE7BA
:102B50000A9800688069C0F340108DF813000A9845
:102B600000688069C0F300108DF81200BCE70A9875
:102B70000068806900F010010020B0EB111F20D127
:102B8000FFE70A98079B06996A46116020210022F8
:102B900002F0F6FE20B1FFE701208DF82F0068E07B
:102BA0000A9801682020C8610A9981F84100FFE76E
:102BB0000A99002081F84000FFE700208DF82F00DF
:102BC00057E00A98079B06996A4611602021002267
:102BD00002F0D6FE20B1FFE701208DF82F0048E07B
:102BE0000A9801681020C8610A9801682020C8610D
:102BF000FFE70598089988421AD1FFE70A9801680B
:102C0000486840F4804048600A98079B06996A46E5
:102C100011602021002202F0B3FE20B1FFE7012065
:102C20008DF82F0025E00A9801682020C861FFE791
:102C3000059801300590FFE7059808998842FFF450
:102C400029AFFFE70A99202081F841000A99486CD2
:102C500040F020004864FFE70A99002081F8400016
:102C6000FFE701208DF82F0003E002208DF82F00F0
:102C7000FFE79DF82F000CB080BD000080B588B044
:102C8000DDF828C00690ADF816100492ADF80E30AD
:102C9000069890F84100202840F0F680FFE7FFE713
:102CA000069890F84000012804D1FFE702208DF833
:102CB0001F00EDE00699012081F84000FFE7FFE7E3
:102CC000FFF774FD0290069802996A4611604FF46E
:102CD00000410122192302F053FE20B1FFE7012039
:102CE0008DF81F00D4E00699222081F84100069952
:102CF000102081F842000699002048640499069A41
:102D00005162BDF80E10069A5185069948630698DF
:102D1000408DB0F5807F14D3FFE70699FF2008852A
:102D20000698BDF8161090F82820EC4642F20043B1
:102D3000C8F20003CCF800304FF0807302F0FAFDC7
:102D400014E00698408D069908850698BDF816107F
:102D500090F82820EC4642F20043C8F20003CCF879
:102D600000304FF0007302F0E5FDFFE7FFE7069843
:102D7000408D00285FD0FFE706980A99029A02F07A
:102D800047FE20B1FFE701208DF81F0080E0069884
:102D90000068406A0699496A08700699486A0130D5
:102DA00048620699088D013808850699488D0138D2
:102DB00048850698408DE8B3FFE70698008DC8BBAC
:102DC000FFE706980A9B02996A461160802100225B
:102DD00002F0D6FD20B1FFE701208DF81F0057E07B
:102DE0000698408DB0F5807F11D3FFE70699FF204C
:102DF00008850698BDF8161090F82820EC460023A8
:102E0000CCF800304FF0807302F094FD11E006988A
:102E1000408D069908850698BDF8161090F8282070
:102E2000EC460023CCF800304FF0007302F082FD36
:102E3000FFE7FFE79BE706980A99029A02F066FE11
:102E400020B1FFE701208DF81F0021E006980168FE
:102E50002020C86106990A6851684EF60003CFF633
:102E6000006319405160069981F8410006990020DD
:102E700081F84200FFE70699002081F84000FFE753
:102E800000208DF81F0003E002208DF81F00FFE7EF
:102E90009DF81F0008B080BD80B588B0DDF828C05F
:102EA0000690ADF816100492ADF80E30069890F822
:102EB0004100202840F0F580FFE7FFE7069890F8F2
:102EC0004000012804D1FFE702208DF81F00ECE04C
:102ED0000699012081F84000FFE7FFE7FFF766FC55
:102EE0000290069802996A4611604FF4004101224F
:102EF000192302F045FD20B1FFE701208DF81F00E6
:102F0000D3E00699212081F841000699102081F82C
:102F100042000699002048640499069A5162BDF85F
:102F20000E10069A5185069948630698408DB0F5B3
:102F3000807F14D3FFE70699FF2008850698BDF827
:102F4000161090F82820EC4642F20003C8F2000365
:102F5000CCF800304FF0807302F0ECFC14E00698DF
:102F6000408D069908850698BDF8161090F828201F
:102F7000EC4642F20003C8F20003CCF800304FF0F8
:102F8000007302F0D7FCFFE7FFE70698408D0028AA
:102F90005ED0FFE706980A99029A02F0FDFD20B183
:102FA000FFE701208DF81F007FE006980168406A66
:102FB000007888620699486A013048620699488D0F
:102FC000013848850699088D013808850698408D96
:102FD000E8B3FFE70698008DC8BBFFE706980A9B99
:102FE00002996A4611608021002202F0C9FC20B1DA
:102FF000FFE701208DF81F0057E00698408DB0F5DF
:10300000807F11D3FFE70699FF2008850698BDF859
:10301000161090F82820EC460023CCF800304FF032
:10302000807302F087FC11E00698408D06990885B0
:103030000698BDF8161090F82820EC460023CCF82E
:1030400000304FF0007302F075FCFFE7FFE79CE7EC
:1030500006980A99029A02F059FD20B1FFE7012073
:103060008DF81F0021E0069801682020C8610699AC
:103070000A6851684EF60003CFF6006319405160AC
:10308000069981F841000699002081F84200FFE787
:103090000699002081F84000FFE700208DF81F000E
:1030A00003E002208DF81F00FFE79DF81F0008B025
:1030B00080BD000080B58CB00B9000200A90099074
:1030C0000890079006900B98006845F20041C4F202
:1030D0000001884239D1FFE7FFE741F21400C4F252
:1030E0000200016841F480210160006800F4802042
:1030F00005900598FFE7C020069012200790012058
:1031000008900320099004200A9040F20040C4F681
:10311000000006A9FFF78EF9FFE741F21C00C4F298
:103120000200016841F400110160006800F4001021
:1031300004900498FFE71F2001900022114600F040
:10314000D5F8019800F0C8F841E00B98006845F602
:103150000001C4F20001884238D1FFE7FFE741F2E5
:103160001400C4F20200016841F4003101600068FB
:1031700000F4003003900398FFE74FF4C06006901E
:1031800012200790002008900320099004200A9044
:103190004FF0904006A9FFF74DF9FFE741F21C0000
:1031A000C4F20200016841F480010160006800F48B
:1031B000800002900298FFE7212000900022114633
:1031C00000F094F8009800F087F8FFE7FFE70CB0F4
:1031D00080BD000040F20C00C2F20000027840F214
:1031E0008861C2F20001086810440860704700005E
:1031F00080B582B042F20001C4F20201086840F0DA
:1032000010000860032000F08BF80020019000F00F
:1032100005F800F03BF8019802B080BD80B582B09F
:10322000009040F20800C2F20000006840F20C0179
:10323000C2F200010A784FF47A71B1FBF2F1B0FBEF
:10324000F1F001F0B3F920B1FFE701208DF807009C
:1032500018E000980F280DD8FFE700994FF0FF30D5
:10326000002200F043F8009840F21001C2F2000181
:10327000086003E001208DF8070003E000208DF8CE
:103280000700FFE79DF8070002B080BD80B582B05F
:10329000FFE741F21800C4F20200016841F00101A9
:1032A0000160006800F0010001900198FFE7FFE76E
:1032B00041F21C00C4F20200016841F0805101603B
:1032C000006800F0805000900098FFE7072000F0B1
:1032D00027F802B080BD000080B582B08DF80700ED
:1032E0009DF9070004F052FC02B080BD80B586B0A5
:1032F0008DF81700049103920020029004F05EFC08
:1033000002909DF91700019002980499039A02F027
:10331000F9FD0146019804F059FC06B080BD00009B
:1033200080B582B00190019804F072FC02B080BDBB
:1033300082B001908DF803104EF61051CEF20001CC
:10334000086820F0040008609DF80300012802D1FD
:10335000FFE730BF03E040BF20BF20BFFFE702B060
:103360007047000080B58AB0089000200790069052
:103370008DF8170008988078C007002800F0D280E8
:10338000FFE741F21C00C4F202000068C000002800
:1033900013D4FFE7FFE741F21C00C4F2020001680A
:1033A00041F080510160006800F080500490049862
:1033B000FFE701208DF81700FFE747F20000C4F295
:1033C00000000068C005002822D4FFE747F2000192
:1033D000C4F20001086840F480700860FFF7E6F965
:1033E0000790FFE747F20000C4F200000068C00544
:1033F00000280CD4FFE7FFF7D9F90799401A652890
:1034000004D3FFE703208DF8270077E1EAE7FFE721
:1034100041F22000C4F20200006800F440700690FF
:103420000698002864D0FFE706980899496801F4D7
:10343000407188425CD0FFE741F22001C4F20201F2
:10344000086820F44070069040F24042C4F24222E4
:103450000120106000201060069808609DF8180098
:10346000C007002843D0FFE7FFF7A0F90790FFE768
:10347000012038B9FFE741F20000C4F20200006801
:10348000039020E0002038B9FFE741F22000C4F2A9
:1034900002000068029013E0012038B9FFE741F212
:1034A0000400C4F202000068019006E041F224002A
:1034B000C4F2020000680190FFE701980290FFE764
:1034C00002980390FFE70398800700280ED4FFE7D7
:1034D000FFF76CF90799401A41F28931884204D309
:1034E000FFE703208DF8270008E1C1E7FFE7FFE7CA
:1034F00041F22001C4F20201086820F44070089AE9
:103500005268104308609DF81700012809D1FFE7B1
:1035100041F21C01C4F20201086820F080500860EA
:10352000FFE7FFE708980078C00760B1FFE741F2C6
:103530003001C4F20201086820F00300089A926882
:1035400010430860FFE708980078800700280CD532
:10355000FFE741F23001C4F20201086820F4403074
:10356000089AD26810430860FFE70898007840077F
:1035700000280CD5FFE741F23001C4F202010868CF
:1035800020F44020089A126910430860FFE7089869
:103590000078800600280CD5FFE741F23001C4F224
:1035A0000201086820F01000089AD26910430860F0
:1035B000FFE708988078800700280CD5FFE741F2E4
:1035C0000401C4F20201086820F48000089A926B9A
:1035D00010430860FFE708980078400600280CD5E3
:1035E000FFE741F23001C4F20201086820F0200038
:1035F000089A126A10430860FFE7089800780007ED
:1036000000280CD5FFE741F23001C4F2020108683E
:1036100020F44010089A526910430860FFE70898A8
:103620000078C00600280CD5FFE741F23001C4F253
:103630000201086820F44000089A9269104308606B
:10364000FFE708984078800700280CD5FFE741F293
:103650000401C4F20201086820F40000089AD26A4A
:1036600010430860FFE708980078000600280CD592
:10367000FFE741F22C01C4F20201086820F4F8705F
:10368000089A526A10430860FFE708984078C0071C
:1036900060B1FFE741F22C01C4F20201086820F496
:1036A0007850089A926A10430860FFE708984078BB
:1036B000C00600280CD5FFE741F23001C4F2020138
:1036C000086820F48070089A126B10430860FFE7C6
:1036D00008984078800600280CD5FFE741F23001B9
:1036E000C4F20201086820F40070089A526B10437B
:1036F0000860FFE700208DF82700FFE79DF827000E
:103700000AB080BD80B58EB00C900B9100200A905D
:103710000C9820B9FFE701208DF8370073E10B9872
:1037200042F20001C4F20201096801F00701884277
:1037300016D9FFE742F20000C4F20200016821F04E
:1037400007010B9A11430160006800F007000B9914
:10375000884204D0FFE701208DF8370053E1FFE7EE
:103760000C980078800700280CD5FFE741F204018F
:10377000C4F20201086820F0F0000C9A926810432D
:103780000860FFE70C980078C007002800F0D6809A
:10379000FFE70C984068012835D1FFE7002038B9D1
:1037A000FFE741F20000C4F202000068099020E047
:1037B000012038B9FFE741F22000C4F2020000689E
:1037C000089013E0012038B9FFE741F20400C4F289
:1037D00002000068079006E041F22400C4F20200F3
:1037E00000680790FFE707980890FFE7089809909E
:1037F000FFE709988003002804D4FFE701208DF833
:10380000370000E16FE00C984068022835D1FFE7EF
:10381000002038B9FFE741F20000C4F2020000685E
:10382000069020E0012038B9FFE741F22000C4F201
:1038300002000068059013E0012038B9FFE741F26B
:103840000400C4F202000068049006E041F2240083
:10385000C4F2020000680490FFE704980590FFE7B7
:1038600005980690FFE706988001002804D4FFE73A
:1038700001208DF83700C6E034E0002038B9FFE7BA
:1038800041F20000C4F202000068039020E0012031
:1038900038B9FFE741F22000C4F20200006802904C
:1038A00013E0012038B9FFE741F20400C4F202003E
:1038B0000068019006E041F22400C4F202000068B2
:1038C0000190FFE701980290FFE702980390FFE75D
:1038D00003988007002804D4FFE701208DF8370003
:1038E00091E0FFE7FFE741F20401C4F2020108683A
:1038F00020F003000C9A526810430860FEF756FF50
:103900000A90FFE741F20400C4F20200006800F0F0
:103910000C000C994968B0EB810F0ED0FFE7FEF761
:1039200045FF0A99401A41F28931884204D3FFE7E2
:1039300003208DF8370066E0E4E7FFE70B9842F2DA
:103940000001C4F20201096801F00701884216D2A1
:10395000FFE742F20000C4F20200016821F0070113
:103960000B9A11430160006800F007000B99884230
:1039700004D0FFE701208DF8370044E0FFE70C9802
:103980000078400700280CD5FFE741F20401C4F29B
:103990000201086820F4E0600C9AD26810430860C5
:1039A000FFE70C980078000700280DD5FFE741F2EB
:1039B0000401C4F20201086820F460500C9A1269F4
:1039C00040EAC2000860FFE700F04CF841F2040151
:1039D000C4F202010968C9B20A094AF2C471C0F608
:1039E0000001895CC84040F20801C2F20001086091
:1039F00040F21000C2F200000068FFF70FFC002048
:103A00008DF83700FFE79DF837000EB080BD00004D
:103A100040F20800C2F200000068704780B5FFF76E
:103A2000F7FF41F20401C4F202010968C1F3022266
:103A30004AF2D471C0F60001895CC84080BD000024
:103A400080B5FFF7E5FF41F20401C4F20201096805
:103A5000C1F3C2224AF2D471C0F60001895CC840A9
:103A600080BD000080B586B00020059004900390D2
:103A70000290019041F20400C4F202000068059037
:103A8000059800F00C0001460091002841D0FFE7A6
:103A90000098042804D0FFE70098082806D039E0F1
:103AA00041F20020C0F27A00019039E00598C0F39D
:103AB00083414AF64870C0F60000405C029041F233
:103AC0002C00C4F20200006800F00F014AF65870A2
:103AD000C0F60000405C04909DF81600C00768B175
:103AE000FFE7049A41F20020C0F27A000023194651
:103AF000FCF710FC02994843039007E0029840F657
:103B00000011C0F23D0148430390FFE70398019084
:103B100006E0FFE741F20020C0F27A000190FFE7E3
:103B2000019806B080BD000080B5AEB02C902C98F6
:103B300028B9FFE701208DF8B70000F028BD2C98C8
:103B40000078C007002800F03181FFE741F204004F
:103B5000C4F20200006800F00C00042813D0FFE754
:103B600041F20400C4F20200006800F00C000828D2
:103B700043D1FFE741F20400C4F202000068C00331
:103B800000283AD5FFE7002038B9FFE741F20000EE
:103B9000C4F202000068279020E0012038B9FFE756
:103BA00041F22000C4F202000068269013E00120D8
:103BB00038B9FFE741F20400C4F202000068259022
:103BC00006E041F22400C4F2020000682590FFE7FD
:103BD00025982690FFE726982790FFE727988003EF
:103BE000002809D5FFE72C98406828B9FFE7012095
:103BF0008DF8B70000F0CBBCD7E0FFE72C98406809
:103C0000B0F5803F09D1FFE741F20001C4F20201A3
:103C1000086840F48030086032E02C98406868B949
:103C2000FFE741F20001C4F20201086820F480308D
:103C30000860086820F48020086020E02C98406824
:103C4000B0F5A02F0DD1FFE741F20001C4F202014F
:103C5000086840F480200860086840F480300860FC
:103C60000CE041F20001C4F20201086820F4803047
:103C70000860086820F480200860FFE7FFE7FFE79E
:103C8000FFE741F22C01C4F20201086820F00F00A6
:103C90002C9A9268104308602C984068002842D003
:103CA000FFE7FEF783FD2B90FFE7002038B9FFE721
:103CB00041F20000C4F202000068249020E00120DC
:103CC00038B9FFE741F22000C4F2020000682390F7
:103CD00013E0012038B9FFE741F20400C4F202000A
:103CE0000068229006E041F22400C4F2020000685D
:103CF0002290FFE722982390FFE723982490FFE784
:103D00002498800300280DD4FFE7FEF74FFD2B9980
:103D1000401A652805D3FFE703208DF8B70000F0AF
:103D200036BCC2E740E0FEF741FD2B90FFE70020E4
:103D300038B9FFE741F20000C4F2020000682190A8
:103D400020E0012038B9FFE741F22000C4F2020070
:103D50000068209013E0012038B9FFE741F2040029
:103D6000C4F2020000681F9006E041F22400C4F291
:103D7000020000681F90FFE71F982090FFE720983F
:103D80002190FFE72198800300280CD5FFE7FEF77C
:103D90000DFD2B99401A652804D3FFE703208DF809
:103DA000B700F4E3C3E7FFE7FFE7FFE72C980078ED
:103DB0008007002840F10381FFE741F20400C4F2CC
:103DC0000200006810F00C0F13D0FFE741F204006E
:103DD000C4F20200006800F00C00082850D1FFE790
:103DE00041F20400C4F202000068C003002847D476
:103DF000FFE7002038B9FFE741F20000C4F20200FB
:103E000000681E9020E0012038B9FFE741F2200051
:103E1000C4F2020000681D9013E0012038B9FFE7EA
:103E200041F20400C4F2020000681C9006E041F276
:103E30002400C4F2020000681C90FFE71C981D904B
:103E4000FFE71D981E90FFE71E988007002809D500
:103E5000FFE72C980069012804D0FFE701208DF8C6
:103E6000B70094E341F20001C4F20201086820F0B7
:103E7000F8002C9A526940EAC2000860FFE79DE012
:103E80002C980069002852D0FFE70021C4F242219B
:103E900001200860FEF78AFC2B90FFE7002038B96C
:103EA000FFE741F20000C4F2020000681B9020E02E
:103EB000012038B9FFE741F22000C4F20200006897
:103EC0001A9013E0012038B9FFE741F20400C4F270
:103ED00002000068199006E041F22400C4F20200DA
:103EE00000681990FFE719981A90FFE71A981B903D
:103EF000FFE71B98800700280CD4FFE7FEF756FC6D
:103F00002B99401A032804D3FFE703208DF8B7004C
:103F10003DE3C3E741F20001C4F20201086820F06A
:103F2000F8002C9A526940EAC200086045E000217E
:103F3000C4F2422100200860FEF738FC2B90FFE716
:103F4000002038B9FFE741F20000C4F20200006827
:103F5000189020E0012038B9FFE741F22000C4F2B8
:103F600002000068179013E0012038B9FFE741F222
:103F70000400C4F202000068169006E041F224003A
:103F8000C4F2020000681690FFE716981790FFE74A
:103F900017981890FFE71898800700280CD5FFE7BE
:103FA000FEF704FC2B99401A032804D3FFE70320F3
:103FB0008DF8B700EBE2C3E7FFE7FFE7FFE72C98D8
:103FC00000780007002840F19580FFE72C98806971
:103FD000002847D0FFE740F28041C4F2422101208F
:103FE0000860FEF7E3FB2B90FFE7012038B9FFE7FD
:103FF00041F20000C4F202000068159020E00120A8
:1040000038B9FFE741F22000C4F2020000681490C2
:1040100013E0012038B9FFE741F20400C4F20200C6
:104020000068139006E041F22400C4F20200006828
:104030001390FFE713981490FFE714981590FFE78B
:104040001598800700280CD4FFE7FEF7AFFB2B99EB
:10405000401A032804D3FFE703208DF8B70096E247
:10406000C3E746E040F28041C4F2422100200860EC
:10407000FEF79CFB2B90FFE7012038B9FFE741F2E8
:104080000000C4F202000068129020E0012038B95C
:10409000FFE741F22000C4F202000068119013E033
:1040A000012038B9FFE741F20400C4F202000068C1
:1040B000109006E041F22400C4F202000068109063
:1040C000FFE710981190FFE711981290FFE7129800
:1040D000800700280CD5FFE7FEF768FB2B99401AF4
:1040E000032804D3FFE703208DF8B7004FE2C3E7AE
:1040F000FFE7FFE72C9800784007002840F1278170
:10410000FFE700208DF8A70041F21C00C4F2020076
:104110000068C000002813D4FFE7FFE741F21C004D
:10412000C4F20200016841F080510160006800F0B3
:10413000805028902898FFE701208DF8A700FFE71E
:1041400047F20000C4F200000068C005002822D435
:10415000FFE747F20001C4F20001086840F48070F4
:104160000860FEF723FB2B90FFE747F20000C4F244
:1041700000000068C00500280CD4FFE7FEF716FB1E
:104180002B99401A652804D3FFE703208DF8B70068
:10419000FDE1EAE7FFE7FFE72C98C068012809D1B5
:1041A000FFE741F22001C4F20201086840F001007B
:1041B000086031E02C98C06868B9FFE741F220013F
:1041C000C4F20201086820F001000860086820F0CD
:1041D000040008601FE02C98C06805280DD1FFE797
:1041E00041F22001C4F20201086840F004000860B6
:1041F000086840F0010008600CE041F22001C4F2C0
:104200000201086820F001000860086820F004003E
:104210000860FFE7FFE7FFE7FFE72C98C06800288A
:1042200043D0FFE7FEF7C2FA2B90FFE7012038B931
:10423000FFE741F20000C4F2020000680F9020E0A6
:10424000002038B9FFE741F22000C4F20200006804
:104250000E9013E0012038B9FFE741F20400C4F2E8
:10426000020000680D9006E041F22400C4F2020052
:1042700000680D90FFE70D980E90FFE70E980F90E5
:10428000FFE70F98800700280ED4FFE7FEF78EFAAD
:104290002B99401A41F28931884204D3FFE7032069
:1042A0008DF8B70073E1C1E742E0FEF77FFA2B908B
:1042B000FFE7012038B9FFE741F20000C4F2020035
:1042C00000680C9020E0002038B9FFE741F22000A0
:1042D000C4F2020000680B9013E0012038B9FFE738
:1042E00041F20400C4F2020000680A9006E041F2C4
:1042F0002400C4F2020000680A90FFE70A980B90BD
:10430000FFE70B980C90FFE70C98800700280ED56C
:10431000FFE7FEF74BFA2B99401A41F289318842A8
:1043200004D3FFE703208DF8B70030E1C1E7FFE7D2
:104330009DF8A700012809D1FFE741F21C01C4F252
:104340000201086820F080500860FFE7FFE72C9822
:10435000C069002800F01781FFE741F20400C4F2B1
:104360000200006800F00C00082800F0E680FFE77B
:104370002C98C069022840F09980FFE76021C4F2C0
:10438000422100200860FEF711FA2B90FFE7002081
:1043900038B9FFE741F20000C4F20200006809905A
:1043A00020E0012038B9FFE741F22000C4F202000A
:1043B0000068089013E0012038B9FFE741F20400DB
:1043C000C4F202000068079006E041F22400C4F243
:1043D000020000680790FFE707980890FFE7089839
:1043E0000990FFE70998800100280CD5FFE7FEF748
:1043F000DDF92B99401A032804D3FFE703208DF839
:10440000B700C4E0C3E741F20401C4F20201086846
:1044100020F474102C9A136A526A1A4310430860ED
:104420006021C4F2422101200860FEF7BFF92B9001
:10443000FFE7002038B9FFE741F20000C4F20200B4
:104440000068069020E0012038B9FFE741F2200023
:10445000C4F202000068059013E0012038B9FFE7BC
:1044600041F20400C4F202000068049006E041F248
:104470002400C4F2020000680490FFE7049805904D
:10448000FFE705980690FFE70698800100280CD406
:10449000FFE7FEF78BF92B99401A032804D3FFE7B7
:1044A00003208DF8B70072E0C3E745E06021C4F255
:1044B000422100200860FEF779F92B90FFE70020E9
:1044C00038B9FFE741F20000C4F20200006803902F
:1044D00020E0012038B9FFE741F22000C4F20200D9
:1044E0000068029013E0012038B9FFE741F20400B0
:1044F000C4F202000068019006E041F22400C4F218
:10450000020000680190FFE701980290FFE702981F
:104510000390FFE70398800100280CD5FFE7FEF722
:1045200045F92B99401A032804D3FFE703208DF89F
:10453000B7002CE0C3E7FFE724E02C98C06901280E
:1045400004D1FFE701208DF8B70020E041F204001C
:10455000C4F2020000682A902A9800F480302C9956
:10456000096A884208D1FFE72A9800F470102C9954
:10457000496A884204D0FFE701208DF8B70006E0C1
:10458000FFE7FFE7FFE700208DF8B700FFE79DF8A2
:10459000B7002EB080BD00004EF21001CEF2000137
:1045A000086840F0020008607047000080B582B0E3
:1045B0000190019802F098F902B080BD4EF210010E
:1045C000CEF20001086820F0020008607047000089
:1045D00081B0009001B0704781B0009001B0704789
:1045E00081B0009001B0704785B003900291FFE761
:1045F000039890F83C00012804D1FFE702208DF8D1
:10460000130089E00399012081F83C00FFE7FFE7F0
:104610000399022081F83D000398006840680190EA
:1046200003980068806800900398006842F6004193
:10463000C4F20101884209D0FFE70398006843F201
:104640000041C4F2010188420AD1FFE7019820F439
:104650007000019002984168019808430190FFE7BB
:10466000019820F0700001900298016801980843B9
:10467000019001980399096848600398006842F620
:104680000041C4F2010188422AD0FFE70398006884
:10469000B0F1804F24D0FFE70398006840F200415A
:1046A000C4F2000188421BD0FFE70398006840F67F
:1046B0000001C4F20001884212D0FFE703980068AD
:1046C00043F20041C4F20101884209D0FFE7039898
:1046D000006844F20001C4F2010188420ED1FFE7F4
:1046E000009820F0800000900298816800980843AC
:1046F00000900098039909688860FFE703990120FA
:1047000081F83D00FFE70399002081F83C00FFE7B6
:1047100000208DF81300FFE79DF8130005B07047E7
:1047200080B582B00090009820B9FFE701208DF895
:10473000070045E0009890F83D0040B9FFE7009978
:10474000002081F83C00009800F03EF8FFE7009957
:10475000022081F83D00009951F8040B02F054F951
:104760000099012081F84800FFE70099012081F8B5
:104770003E00009981F83F00009981F840000099BF
:1047800081F84100009981F84200009981F84300C6
:10479000FFE7FFE70099012081F84400009981F8C4
:1047A0004500009981F84600009981F84700FFE72D
:1047B0000099012081F83D0000208DF80700FFE7F7
:1047C0009DF8070002B080BD80B584B003900398C7
:1047D000006840F20041C4F20001884219D1FFE7AD
:1047E000FFE741F21C00C4F20200016841F002013F
:1047F0000160006800F0020002900298FFE71D20AF
:10480000019000221146FEF771FD0198FEF764FD4C
:10481000FFE704B080BD000083B00190019890F8DC
:104820003D00012804D0FFE701208DF80B0060E077
:104830000199022081F83D0001980168C86840F0A4
:104840000100C8600198006842F60041C4F201010D
:1048500088422AD0FFE701980068B0F1804F24D049
:10486000FFE70198006840F20041C4F2000188426D
:104870001BD0FFE70198006840F60001C4F2000178
:10488000884212D0FFE70198006843F20041C4F269
:104890000101884209D0FFE70198006844F2000155
:1048A000C4F20101884219D1FFE7019800688068CD
:1048B0000721C0F2010108400090009806280CD0A2
:1048C000FFE70098B0F5803F07D0FFE70198016847
:1048D000086840F001000860FFE706E00198016801
:1048E000086840F001000860FFE700208DF80B0029
:1048F000FFE79DF80B0003B07047000080B586B05D
:104900000490039100208DF80B00FFE7049890F8C5
:104910003C00012804D1FFE702208DF81700AEE02B
:104920000499012081F83C00FFE7FFE70499022089
:1049300081F83D00049800688068019001984FF666
:104940008871CFF6FE7108400190019820F47F40F5
:1049500001900198049909688860039800680090A4
:10496000002872D0FFE7009810286ED0FFE700986B
:1049700020286AD0FFE70098302866D0FFE700982B
:10498000402855D0FFE70098502837D0FFE700981F
:10499000602840D0FFE7009870280BD0FFE7009810
:1049A000B0F5805F05D0FFE70098B0F5005F16D046
:1049B00052E055E004980068039B5A689968DB68E8
:1049C00002F0E2F80498006880680190019840F0D5
:1049D00077000190019804990968886040E0049884
:1049E0000068039B5A689968DB6802F0CDF8049868
:1049F0000168886840F48040886031E0049800686D
:104A0000039A5168D26802F0EFF8049800685021C8
:104A100002F0D4F824E004980068039A5168D26840
:104A200002F00AF904980068602102F0C7F817E064
:104A300004980068039A5168D26802F0D5F8049887
:104A40000068402102F0BAF80AE00498006803996F
:104A5000096802F0B3F803E001208DF80B00FFE7CE
:104A60000499012081F83D00FFE70499002081F8B6
:104A70003C00FFE79DF80B008DF81700FFE79DF85D
:104A8000170006B080BD000081B0009001B07047F3
:104A900080B582B0019001980068006900F00201C1
:104AA0000020B0EB510F28D0FFE701980068C068E4
:104AB00000F002010020B0EB510F1DD0FFE701987C
:104AC00001686FF0020008610199012008770198E0
:104AD00000688069800720B1FFE70198FFF7D4FFE5
:104AE00006E0019800F02EF9019800F02FF9FFE799
:104AF000019900200877FFE7FFE701980068006947
:104B000000F004010020B0EB910F29D0FFE70198DD
:104B10000068C06800F004010020B0EB910F1ED0C7
:104B2000FFE7019801686FF0040008610199022015
:104B3000087701980068806910F4407F04D0FFE78F
:104B40000198FFF7A1FF06E0019800F0FBF801983B
:104B500000F0FCF8FFE7019900200877FFE7FFE786
:104B600001980068006900F008010020B0EBD10F47
:104B700028D0FFE701980068C06800F00801002015
:104B8000B0EBD10F1DD0FFE7019801686FF008006E
:104B9000086101990420087701980068C0698007BE
:104BA00020B1FFE70198FFF76FFF06E0019800F0E2
:104BB000C9F8019800F0CAF8FFE7019900200877CA
:104BC000FFE7FFE701980068006900F0100100208E
:104BD000B0EB111F29D0FFE701980068C06800F012
:104BE00010010020B0EB111F1ED0FFE701980168F3
:104BF0006FF010000861019908200877019800689B
:104C0000C06910F4407F04D0FFE70198FFF73CFF34
:104C100006E0019800F096F8019800F097F8FFE799
:104C2000019900200877FFE7FFE701980068006915
:104C3000C00780B1FFE701980068C068C00748B1AD
:104C4000FFE7019801686FF001000861019800F02A
:104C500081F8FFE7FFE7019800680069C1B2002012
:104C6000B0EBD11F13D0FFE701980068C068C1B254
:104C70000020B0EBD11F09D0FFE7019801686FF069
:104C8000800008610198FFF7A7FCFFE7FFE70198A4
:104C90000068006900F480710020B0EB112F13D080
:104CA000FFE701980068C068C1B20020B0EBD11FD7
:104CB00009D0FFE7019801686FF4807008610198DE
:104CC000FFF786FCFFE7FFE701980068006900F046
:104CD00040010020B0EB911F14D0FFE7019800685D
:104CE000C06800F040010020B0EB911F09D0FFE741
:104CF000019801686FF040000861019800F05AF8CF
:104D0000FFE7FFE701980068006900F0200100203C
:104D1000B0EB511F14D0FFE701980068C06800F0A5
:104D200020010020B0EB511F09D0FFE70198016876
:104D30006FF0200008610198FFF752FCFFE7FFE7E2
:104D400002B080BD81B0009001B0704781B000908A
:104D500001B0704780B582B00190FFF71DFC01984B
:104D600040F26051C2F20001884220D1FFE7FDF716
:104D70009BF840F23060C2F200000168013101602E
:104D80000068052812D1FFE7FCF71EFC40F2C44181
:104D9000C2F20001086002F04BFE02F02FFE40F26A
:104DA0003061C2F2000100200860FFE7FFE702B0B7
:104DB00080BD000081B0009001B0704782B00190CA
:104DC000ADF8021002B0704781B0009001B070479A
:104DD00081B0009001B0704780B590B00F900F98EF
:104DE0000068C0690E900F98006800680D900F98D9
:104DF000006880680C900E9840F60F0108400B90F8
:104E00000B98B0B9FFE79DF83800800600280FD551
:104E1000FFE79DF834008006002809D5FFE70F98CA
:104E2000406E20B1FFE70F98416E8847FFE737E2F9
:104E3000FFE70B98002800F0FE80FFE79DF83000A8
:104E4000C00748B9FFE70D9840F22011C0F20041B9
:104E5000084200F0F080FFE79DF83800C00788B1F5
:104E6000FFE79DF83500C00760B1FFE70F980168C4
:104E7000012008620F99D1F8800040F00100C1F8CC
:104E80008000FFE79DF838008007002811D5FFE774
:104E90009DF83000C00760B1FFE70F98016802205D
:104EA00008620F99D1F8800040F00400C1F880003A
:104EB000FFE79DF838004007002811D5FFE79DF86F
:104EC0003000C00760B1FFE70F9801680420086256
:104ED0000F99D1F8800040F00200C1F88000FFE790
:104EE0009DF838000007002817D5FFE79DF834002B
:104EF0008006002805D4FFE79DF83000C00760B1A8
:104F0000FFE70F980168082008620F99D1F8800028
:104F100040F00800C1F88000FFE79DF83900000765
:104F2000002813D5FFE79DF83700400700280DD56E
:104F3000FFE70F9801684FF4006008620F99D1F8FD
:104F4000800040F02000C1F88000FFE70F98D0F803
:104F5000800000286ED0FFE79DF83800800600280A
:104F60000FD5FFE79DF834008006002809D5FFE73C
:104F70000F98406E20B1FFE70F98416E8847FFE71A
:104F8000FFE70F98D0F880000A900F9800688068BB
:104F900000F04000402806D0FFE79DF8280010F000
:104FA000280F3ED0FFE70F9801F080FF0F980068B0
:104FB0008068400600282FD5FFE7FFE7FFE70F983E
:104FC000006850E8020F20F040000990FFE70999BF
:104FD0000F98026842E802100028F0D1FFE7FFE7CF
:104FE0000F98006F98B1FFE70F98016F46F6896040
:104FF000C0F6000048630F98006FFDF787F828B1EE
:10500000FFE70F98006F416B8847FFE703E00F98B9
:10501000FFF7DEFEFFE703E00F98FFF7D9FEFFE79B
:1050200007E00F98FFF7D4FE0F990020C1F8800029
:10503000FFE7FFE734E10F98006E012840F0F680AB
:10504000FFE79DF83800C006002840F1EF80FFE739
:105050009DF83400C006002840F1E880FFE70F9873
:105060000168102008620F980068806840060028D8
:1050700040F18180FFE70F98006F00684068ADF84D
:105080002200BDF82200002874D0FFE7BDF82200FE
:105090000F99B1F8581088426CDAFFE7BDF822008A
:1050A0000F99A1F85A000F98006F8069202857D0F7
:1050B000FFE7FFE7FFE70F98006850E8000F20F4D4
:1050C00080700790FFE707990F98026842E8001088
:1050D0000028F0D1FFE7FFE7FFE7FFE70F98006840
:1050E00050E8020F20F001000690FFE706990F98A4
:1050F000026842E802100028F0D1FFE7FFE7FFE76F
:10510000FFE70F98006850E8020F20F0400005907C
:10511000FFE705990F98026842E802100028F0D1D5
:10512000FFE7FFE70F992020C8670F990020086666
:10513000FFE7FFE70F98006850E8000F20F010002D
:105140000490FFE704990F98026842E800100028D5
:10515000F0D1FFE7FFE70F98006FFCF79DFFFFE737
:105160000F98B0F85810B0F85A20891A89B2FFF792
:1051700025FEFFE794E00F99B1F85800B1F85A10F6
:10518000401AADF80E000F98B0F85A0000284CD025
:10519000FFE7BDF80E00002847D0FFE7FFE7FFE775
:1051A0000F98006850E8000F20F490700290FFE71D
:1051B00002990F98026842E800100028F0D1FFE73A
:1051C000FFE7FFE7FFE70F98006850E8020F20F0C5
:1051D00001000190FFE701990F98026842E8021070
:1051E0000028F0D1FFE7FFE70F992020C8670F994B
:1051F000002008660F994866FFE7FFE70F980068F0
:1052000050E8000F20F010000090FFE700990F9881
:10521000026842E800100028F0D1FFE7FFE70F988E
:10522000BDF80E10FFF7CAFDFFE739E09DF83A0020
:10523000C00600280FD5FFE79DF832004006002881
:1052400009D5FFE70F9801684FF4801008620F98A6
:10525000FFF7BAFD24E09DF83800000600280FD5BE
:10526000FFE79DF834000006002809D5FFE70F98F6
:10527000806E20B1FFE70F98816E8847FFE70FE04F
:105280009DF83800400600280AD5FFE79DF8340055
:105290004006002804D5FFE70F9801F053FEFFE712
:1052A00010B080BD80B582B00090009820B9FFE7B3
:1052B00001208DF8070044E00098806908B1FFE7FD
:1052C00000E0FFE70098806F40B9FFE700990020F9
:1052D00081F87400009800F039F8FFE70099242065
:1052E000886700980168086820F00100086000984D
:1052F00001F078FF012804D1FFE701208DF80700B5
:105300001FE00098406A20B1FFE7009801F0C6FC5A
:10531000FFE700980168486820F4904048600098D2
:105320000168886820F02A00886000980168086891
:1053300040F001000860009801F054FD8DF807006E
:10534000FFE79DF8070002B080BD000080B58AB07D
:105350000990002008900790069005900490099805
:10536000006844F60041C4F2000188423BD1FFE7E7
:10537000FFE741F21C00C4F20200016841F4002181
:105380000160006800F4002003900398FFE7FFE746
:1053900041F21400C4F20200016841F400210160EE
:1053A000006800F4002002900298FFE74FF440608C
:1053B00004900220059000200090069003200790A2
:1053C0000520089040F60000C4F6000004A9FDF78F
:1053D00031F8009A342001901146FDF787FF0198BB
:1053E000FDF77AFFFFE70AB080BD000080B586B008
:1053F00004900391ADF80A200498C06F202843D18F
:10540000FFE7039820B1FFE7BDF80A0020B9FFE7E6
:1054100001208DF817003BE0FFE7049890F8740036
:10542000012804D1FFE702208DF8170030E004992D
:10543000012081F87400FFE7FFE704990020086667
:105440000498006840680002002814D5FFE7FFE7D1
:10545000FFE70498006850E8000F40F0806001907A
:10546000FFE701990498026842E800100028F0D193
:10547000FFE7FFE7FFE704980399BDF80A2002F071
:10548000B1F88DF8170003E002208DF81700FFE750
:105490009DF8170006B080BD80B582B00190FFF77F
:1054A0007BF840F27860C2F200000078012813D146
:1054B000FFE740F27861C2F200014878897840EA5B
:1054C000012140F27E60C2F200000180008802F0FB
:1054D00067FA00F04FFDFFE702B080BD80B58AB0EB
:1054E00008900791ADF81A2005930898806F20283E
:1054F00040F09480FFE7079820B1FFE7BDF81A005D
:1055000020B9FFE701208DF827008BE0FFE708981E
:1055100090F87400012804D1FFE702208DF82700DD
:1055200080E00899012081F87400FFE7FFE70899FF
:105530000020C1F88000089921208867FDF736F91E
:105540000290BDF81A000899A1F85000BDF81A00A1
:105550000899A1F8520008988068B0F5805F09D1D9
:10556000FFE70898006928B9FFE700200490079832
:10557000039004E00798049000200390FFE7FFE702
:105580000899002081F87400FFE7FFE70898B0F859
:10559000520068B3FFE70898029B05996A461160BC
:1055A0008021002202F044F920B1FFE703208DF8AA
:1055B000270037E0049858B9FFE7039800886FF395
:1055C0005F2008990968088503980230039008E075
:1055D00004980078089909680885049801300490B7
:1055E000FFE70899B1F852000138A1F85200CDE761
:1055F0000898029B05996A4611604021002202F03A
:1056000017F920B1FFE703208DF827000AE0089979
:105610002020886700208DF8270003E002208DF805
:105620002700FFE79DF827000AB080BD85B00390F2
:105630000291ADF806200398806F202867D1FFE71C
:10564000029820B1FFE7BDF8060020B9FFE701206E
:105650008DF813005FE0FFE7039890F874000128CD
:1056600004D1FFE702208DF8130054E003990120D4
:1056700081F87400FFE7FFE702980399C864BDF85A
:1056800006000399A1F85000BDF806000399A1F89F
:1056900052000399002088660399C1F8800003999D
:1056A0002120886703988068B0F5805F0BD1FFE701
:1056B0000398006938B9FFE7039947F20D70C0F607
:1056C0000000886606E0039947F2A570C0F6000066
:1056D0008866FFE7FFE70399002081F87400FFE781
:1056E000FFE7FFE70398006850E8000F40F08000F4
:1056F0000090FFE700990398026842E80010002834
:10570000F0D1FFE7FFE700208DF8130003E002204F
:105710008DF81300FFE79DF8130005B070470000F7
:1057200080B582B0019002F04DF902B080BD00005A
:10573000FFE7FEE780B540F2C840C2F20000FDF787
:10574000D9F880BD80B540F21450C2F20000FDF7D8
:10575000D1F880BD81B0009000980068806900F0A9
:1057600002010020B0EB510F05D0FFE7009801685F
:1057700000208862FFE7009800688069C00738B998
:10578000FFE700980168886940F001008861FFE741
:1057900001B0704710B588B040F28462C2F20002D6
:1057A00004922020107077205070694601200290EA
:1057B000086040F2C840C2F2000006903221022385
:1057C0000593FDF769FB0299049A059B84460698A8
:1057D00040F28764C2F20004079484F800C013709A
:1057E0004FF0000C82F801C0EC46CCF800103C21D0
:1057F0000391FDF751FBDDF808C00399049A059B5E
:105800008646069884F800E082F800C04FF0800ECB
:1058100082F801E0EE46CEF800C0FDF73DFB0799A7
:10582000087008B010BD000080B586B004900391E8
:10583000029204980068806900F010010120B0EB2A
:10584000111F6FD1FFE704980068406800F00070F6
:10585000B0F1007F07D0FFE704980168486840F482
:1058600080404860FFE7FFE704980068806900F027
:1058700020010020B0EB511F28D1FFE70398013031
:1058800018B3FFE7FCF792FF0299401A0399884288
:1058900003D8FFE70398B8B9FFE70499486C40F0D4
:1058A000200048640499202081F8410004990020D8
:1058B00081F84200FFE70499002081F84000FFE7EB
:1058C00001208DF8170031E0FFE7CDE7049801686B
:1058D0001020C8610498016820200190C8610498D4
:1058E000FFF738FF019804990A6851684EF60003E3
:1058F000CFF6006319405160049A516C41F00401E5
:105900005164049981F841000499002081F8420013
:10591000FFE70499002081F84000FFE701208DF89F
:10592000170003E000208DF81700FFE79DF817002F
:1059300006B080BD83B0DDF80CC00290ADF8061053
:105940008DF805200093029800684068039A20EAC9
:10595000525049F60041CFF600410840BDF806100C
:105960006FF39F219DF8053041EA0341009B1943E5
:105970001143084302990968486003B0704700006A
:1059800080B586B0DDF820C0049003918DF80B201F
:105990000193FFE704980068806903990840401A62
:1059A000B0FA80F040099DF80B10884228D1FFE73B
:1059B0000198013018B3FFE7FCF7F8FE0899401A88
:1059C0000199884203D8FFE70198B8B9FFE7049925
:1059D000486C40F0200048640499202081F8410080
:1059E0000499002081F84200FFE70499002081F823
:1059F0004000FFE701208DF8170005E0FFE7C9E749
:105A000000208DF81700FFE79DF8170006B080BD55
:105A100080B584B0029001910092FFE7029800687F
:105A2000806900F004010020B0EB910F66D1FFE720
:105A300002980199009AFFF7F7FE20B1FFE70120D5
:105A40008DF80F005EE002980068806900F0200188
:105A50000120B0EB511F32D1FFE702980068806946
:105A600000F004010120B0EB910F08D1FFE702988C
:105A7000008D20B1FFE700208DF80F0042E0029872
:105A800000682021C1610298026850684EF6000348
:105A9000CFF6006318405060029A00205064029ACA
:105AA00082F84110029981F84200FFE70299002034
:105AB00081F84000FFE701208DF80F0022E0FCF79D
:105AC00075FE0099401A0199884203D8FFE70198B2
:105AD00098B9FFE70299486C40F0200048640299A9
