:020000040800F2
:10000000700B002029020008B94D0008BD4500080A
:10001000B54D00084104000815600008000000000C
:10002000000000000000000000000000554E000825
:10003000910A000800000000294E0008AD4E00089B
:10004000430200084302000843020008430200087C
:10005000430200084302000843020008430200086C
:10006000430200084302000843020008430200085C
:10007000430200084302000843020008430200084C
:10008000430200084302000843020008430200083C
:10009000430200084302000843020008430200082C
:1000A000430200084302000843020008430200081C
:1000B00043020008754F000843020008C1450008CC
:1000C00043020008D145000843020008430200082B
:1000D00043020008430200084302000843020008EC
:1000E00043020008430200084302000843020008DC
:1000F00043020008430200084302000843020008CC
:1001000000000000000000000000000043020008A2
:100110000952000843020008430200084302000895
:10012000430200084302000843020008430200089B
:100130004302000843020008000000000000000025
:1001400043020008430200084302000800000000C8
:10015000000000000000000000000000000000009F
:1001600000000000000000004302000843020008F5
:100170004302000800000000000000000000000032
:10018000000000004302000800F002F800F03CF814
:100190000AA090E8000C82448344AAF10107DA45E2
:1001A00001D100F031F8AFF2090EBAE80F0013F0F8
:1001B000010F18BFFB1A43F001031847F480000039
:1001C00014810000103A24BF78C878C1FAD85207C9
:1001D00024BF30C830C144BF04680C6070470000C1
:1001E0000023002400250026103A28BF78C1FBD840
:1001F000520728BF30C148BF0B6070471FB507F0DA
:100200001AFF1FBD10B510BD00F0E4F81146FFF74E
:10021000F5FF05F061FF00F002F903B4FFF7F2FF0C
:1002200003BC00F005F90000094880470948004771
:10023000FEE7FEE7FEE7FEE7FEE7FEE7FEE7FEE796
:10024000FEE7FEE704480549054A064B70470000F3
:10025000614F00088901000870050020700B002024
:10026000700700207007002053EA020C00F069803C
:100270002DE9F04B4FF00006002B1FBFB3FA83F5BA
:1002800003FA05F424FA05F65E4012BF1643B2FAEB
:1002900082F502FA05F4C5F120051EBF22FA05FC1D
:1002A00044EA0C04203556EA044C4FEA144418BFC3
:1002B000641C4FF000084FF00009904271EB030CF2
:1002C00039D3002919BFB1FA81F701FA07F6B0FA5C
:1002D00080F700FA07F6C7F120071EBF20FA07FCD7
:1002E00046EA0C062037B6FBF4FCA7EB0507103FE7
:1002F00007F01F0BCBF120062CFA06F60CFA0BFBCD
:1003000044BFB3460026202FA4BF5E464FF0000B2B
:100310005BEA060C08BF4FF0010B19EB0B0948EB29
:100320000608ABFB027C06FB02CC0BFB03CCC01B1C
:1003300071EB0C01C1E70B46024641464846BDE859
:10034000F08B13B5084318BF4FF0FF300146AFF3F1
:100350000080BDE81C4070474FF0000200B5134616
:1003600094469646203922BFA0E80C50A0E80C50D5
:10037000B1F12001BFF4F7AF090728BFA0E80C5086
:1003800048BF0CC05DF804EB890028BF40F8042B7F
:1003900008BF704748BF20F8022B11F0804F18BFEC
:1003A00000F8012B704770477047704710B500F098
:1003B00009F8006810BD10B5044600F003F80460A9
:1003C00010BD000000487047100000200048704732
:1003D000100000207546FFF7F9FFAE46050069469C
:1003E000534620F00700854618B020B5FFF72AFFD6
:1003F000BDE820404FF000064FF000074FF0000826
:100400004FF0000BAC46ACE8C009ACE8C009ACE862
:10041000C009ACE8C00921F007018D46704710B54E
:100420000446AFF300802046BDE81040FFF7F5BE5C
:1004300001491820ABBEFEE726000200704700000D
:10044000FFE7FEE700000000B0B5CAB040F23C5341
:10045000C2F20003186840F21054C2F2000421688E
:1004600090FBF1F0186040F24452C2F200021068B2
:10047000216890FBF1F0106040F24C51C2F2000193
:100480000868D4F800C090FBFCF0086040F29800C7
:10049000C2F20000D0F800C0D4F800E09CFBFEFCE3
:1004A000C0F800C040F2A00EC2F2000ECDF808E085
:1004B000DEF800C025689CFBF5FCCEF800C040F2D9
:1004C000A80EC2F2000EDEF800C024689CFBF4FC0B
:1004D000CEF800C093ED000AB8EEC00A9FEDFB1AFB
:1004E00080EE010A40F28003C2F20003289383EDFC
:1004F000000A92ED000AB8EEC00A80EE010A40F24E
:100500008802C2F200022E9282ED000A91ED000AEA
:10051000B8EEC00A9FEDEE1A80EE010A40F290019B
:10052000C2F20001389181ED000A90ED000AB8EEA8
:10053000C00A9FEDE81A8DED001A80EE010AB0EEB8
:10054000001A8DED011A80EE010A10EE100A80F0FB
:10055000004007F0FFFC41EC100B05F009FE51ECE8
:10056000100B06F05DFF9DED002A9DED011A01467E
:10057000029840F23852C2F200023E92116090EDB1
:10058000000AB8EEC00A80EE020A80EE010A10EE00
:10059000100A07F0DFFC02463E9803920A460399D0
:1005A00042EC101B8DED040B006807F0D3FC41EC0E
:1005B000100B06F0F9F99DED041B51EC110B53ECF7
:1005C000102B07F013F841EC100B05F0D1FD51ECA6
:1005D000100B06F025FF0146289840F26052C2F247
:1005E00000023A921160006807F0B4FC02463E989F
:1005F00006920A46069942EC101B8DED0A0B006824
:1006000007F0A8FC41EC100B06F0CEF938988DED00
:100610000C0B006807F09EFC02463E9807920A46C3
:10062000079942EC101B8DED080B006807F092FC57
:1006300041EC100B06F01CFA9DED081B51EC110B60
:1006400053EC102B07F0C2F99DED0A1B9DED0C0B2E
:1006500041EC120B8DED0E2B51EC110B53EC102BCA
:1006600007F0B4F99DED0E0B41EC110B51EC110BA1
:1006700053EC102B06F006FF41EC100B51EC100B65
:1006800006F0CEFE0146289840F28402C2F2000233
:1006900046921160006807F05DFC02463A9811929C
:1006A0000A46119942EC101B8DED120B006807F001
:1006B00051FC41EC100B06F0DBF99DED121B51ECE7
:1006C000110B53EC102B07F081F902463E9814925F
:1006D0000A46149942EC101B8DED180B006807F0C8
:1006E00039FC41EC100B06F0C3F92E988DED1A0B76
:1006F000006807F02FFC02463A9815920A461599B1
:1007000042EC101B8DED160B006807F023FC41EC4A
:10071000100B06F049F99DED161B51EC110B53EC33
:10072000102B07F053F99DED181B9DED1A0B41ECB2
:10073000120B8DED1C2B51EC110B53EC102B07F011
:1007400045F99DED1C0B41EC110B51EC110B53ECD9
:10075000102B06F097FE024638981E920A461E9904
:1007600042EC101B8DED260B006807F0F3FB0246F0
:100770003A981F920A461F9942EC101B8DED200BF0
:10078000006807F0E7FB41EC100B06F071F99DEDF6
:10079000201B51EC110B53EC102B07F017F90246FC
:1007A0003E9823920A46239942EC101B8DED240BB0
:1007B000006807F0CFFB41EC100B06F0F5F89DED5B
:1007C000241B51EC110B53EC102B07F0FFF89DED9F
:1007D000260B02460B4651EC100B43EC102B53EC4E
:1007E000102B07F0C9FA41EC100B51EC100B06F07E
:1007F00017FE0146289840F28C02C2F20002459290
:100800001160006807F0A6FB02463A9829920A4652
:10081000299942EC101B8DED2A0B006807F09AFB1A
:1008200041EC100B06F0C0F89DED2A1B51EC110BAA
:1008300053EC102B07F0CAF802463E982D920A4658
:100840002D9942EC101B8DED320B006807F082FBF6
:1008500041EC100B06F00CF92E988DED340B00686E
:1008600007F078FB02463A982F920A462F9942ECFD
:10087000101B8DED300B006807F06CFB41EC100B8A
:1008800006F0F6F89DED301B51EC110B53EC102BDC
:1008900007F09CF89DED321B9DED340B41EC120BE3
:1008A0008DED362B51EC110B53EC102B07F08EF81D
:1008B0009DED360B41EC110B53EC112B51EC100B51
:1008C00007F05AFA0246389800F006B80000E143F3
:1008D0000000C8430000004739920A46399942ECAB
:1008E000101B8DED420B006807F034FB02463A986E
:1008F0003B920A463B9942EC101B8DED3C0B006885
:1009000007F028FB41EC100B06F04EF89DED3C1B68
:1009100051EC110B53EC102B07F058F802463E989F
:100920003F920A463F9942EC101B8DED400B006848
:1009300007F010FB41EC100B06F036F89DED401B64
:1009400051EC110B53EC102B07F040F89DED420BCE
:1009500053EC102B41EC100B51EC100B06F092FDF8
:1009600041EC100B51EC100B06F05AFD0146459876
:1009700040F29402C2F200021160006807F0EAFA45
:100980000246469847920A46479942EC101B8DED65
:10099000480B006807F0DEFA9DED480B41EC110BA7
:1009A00005F002FF51EC100B9FED350B53EC102BB3
:1009B00007F00CF841EC100B51EC100B9FED320BD3
:1009C00053EC102B06F012FE41EC100B51EC100B07
:1009D00006F0A2FF014640F27000C2F20000016082
:1009E00040F2B001C2F200010A68016811440160DE
:1009F000036846F2B701CBF20B6151FB03321112CF
:100A000001EBD2714FF4B47201FB12310160006846
:100A1000B0F1FF3F09DCFFE740F27001C2F20001D4
:100A2000086800F5B4700860FFE740F21051C2F2A8
:100A300000010020086040F23C51C2F20001086051
:100A400040F24451C2F20001086040F24C51C2F23F
:100A50000001086040F29801C2F20001086040F213
:100A6000A001C2F20001086040F2A801C2F2000138
:100A7000086040F27000C2F2000000684AB0B0BDE9
:100A8000000000000080664000000060B81E0940C1
:100A90007047000081B0EFF3108072B60090FFE75E
:100AA000FEE7000040F21851C2F200010020C861C8
:100AB00042F21001C4F20201086840F0040008602C
:100AC000086840F0400008607047000081B0009066
:100AD00040F21851C2F200010020C86142F2100138
:100AE000C4F20201086840F002000860009842F277
:100AF0001402C4F202021060086840F0400008606E
:100B000001B0704782B00190ADF8021040F2185168
:100B1000C2F200010020C86142F21001C4F20201D9
:100B2000086840F001000860BDF8020001990880E3
:100B300002B0704781B00020009042F20C00C4F275
:100B400002000068C00600280DD5FFE740F21851EA
:100B5000C2F20001C86940F00200C861009840F08C
:100B600010000090FFE742F20C00C4F2020000689F
:100B7000400700280DD5FFE740F21851C2F20001EE
:100B8000C86940F00100C861009840F0040000907E
:100B9000FFE7009842F20C01C4F20201086001B0C4
:100BA0007047000080B584B0029000F043FD0190D2
:100BB000FFE742F20C00C4F202000068C007A8B1CF
:100BC000FFE70298013080B1FFE7029840B1FFE7EC
:100BD00000F030FD0199401A0299884204D9FFE7DC
:100BE00003208DF80F002EE0FFE7E2E742F20C0051
:100BF000C4F2020000688006002807D5FFE742F231
:100C00000C01C4F2020120200860FFE742F20C0050
:100C1000C4F20200006800F01000102809D0FFE7BD
:100C200042F20C00C4F2020000684007002806D51A
:100C3000FFE7FFF77FFF01208DF80F0003E00020A2
:100C40008DF80F00FFE79DF80F0004B080BD000095
:100C500083B002900191ADF80220FFE7029800688E
:100C600001990860029804300290019804300190C4
:100C7000BDF80200411EADF8021008B9FFE700E020
:100C8000ECE703B07047000080B58AB00890079188
:100C9000ADF81A2000200090049000F0E1FA0099CD
:100CA000089803900898BDF81A2000EB8200029083
:100CB0000298019040F27400C2F2000001600399B2
:100CC00041600199039A8A1A012101EBD2218160C6
:100CD00005A900F09BF920B1FFE700F01BFA09908D
:100CE00022E0FFE70498BDF81A10884217DAFFE700
:100CF00008990798049A50F822200220002300F057
:100D000019FA38B9FFE708980430089004980130C0
:100D1000049003E000F0FEF9099005E0E2E700F03E
:100D2000FFF900200990FFE709980AB080BD000094
:100D3000B0B58CB040F26452C2F2000202922020A0
:100D4000107077205070694601200390086040F2CF
:100D5000B800C2F20000069032210191022300F097
:100D6000B5FE0199029A039B8446069840F26754A7
:100D7000C2F200040A9484F800C04FF0A80C82F874
:100D800000C0EC46CCF8003000F0A0FE0199039AB8
:100D90000346069823706B461A6040F25252C2F224
:100DA000000207920623059300F082FD029A039B3E
:100DB000DDF81CC00146069821709CF800109CF8D4
:100DC00001E041EA0E2140F29C0EC2F2000ECDF885
:100DD00020E0AEF800109CF802109CF803E041EA15
:100DE0000E2140F2A40EC2F2000ECDF824E0AEF8BF
:100DF00000109CF804109CF805C041EA0C2140F258
:100E0000AC0CC2F2000CCDF82CC0ACF800100321E1
:100E1000117069460B603C21049100F057FEDDF82B
:100E20000CC00499059B079A8646069884F800E052
:100E3000EE46CEF800C000F03BFDDDF81CC0089A7D
:100E40000999DDF828E003460B988EF800309CF8ED
:100E500000E09CF8013043EA0E2340F2405EC2F20B
:100E6000000EAEF800309CF802409CF8033043EAD4
:100E7000042440F25053C2F200031C809CF804404A
:100E80009CF805C04CEA042440F2485CC2F2000C15
:100E9000ACF8004040F21055C2F200052C68013455
:100EA0002C60BEF9005040F23C54C2F20004D4F869
:100EB00000E0AE44C4F800E0BCF9004040F2445EFB
:100EC000C2F2000EDEF800C0A444CEF800C0B3F9B0
:100ED00000E040F24C5CC2F2000CDCF800307344DD
:100EE000CCF80030B2F900C040F29803C2F200031F
:100EF0001A6862441A60B1F9003040F2A002C2F2EE
:100F00000002116819441160B0F9002040F2A801F4
:100F1000C2F200010868104408600CB0B0BD0000C7
:100F200082B00090009890F8210002280DD0FFE7D1
:100F3000009904208863FFE70099002081F82000D1
:100F4000FFE701208DF8070020E00098016808689D
:100F500020F00E00086000980168086820F0010089
:100F600008600098C16B026C012090404860FFE768
:100F70000099012081F82100FFE70099002081F805
:100F80002000FFE700208DF80700FFE79DF807002D
:100F900002B0704780B582B0019000208DF8030048
:100FA000019890F82100022807D0FFE7019904205A
:100FB000886301208DF8030024E001980168086827
:100FC00020F00E00086001980168086820F0010018
:100FD00008600198C26B016C012000FA01F15160B8
:100FE000019981F82100FFE70199002081F8200094
:100FF000FFE70198406B20B1FFE70198416B8847FC
:10100000FFE7FFE79DF8030002B080BD80B586B022
:101010000490039101208DF80B0000200190FFE760
:1010200040F21850C2F20000007E012804D1FFE710
:1010300002208DF8170069E040F21851C2F2000159
:1010400001200876FFE7FFE704980068012818D11F
:10105000FFE74CF25030FFF7A5FD88B9FFE7FFF737
:1010600021FD4CF25030FFF79DFD8DF80B0042F250
:101070001001C4F20201086820F004000860FFE7D4
:1010800037E04CF25030FFF78DFD88BBFFE7039946
:101090004FF0FF300860049840680190FFE7019826
:1010A000049A5168926801EBC22188421FD2FFE77F
:1010B0000198FFF70BFD4CF25030FFF773FD8DF8F0
:1010C0000B0042F21001C4F20201086820F0020095
:1010D00008609DF80B0020B1FFE7019803990860B4
:1010E00005E0FFE7019800F500600190D7E7FFE712
:1010F000FFE7FFE740F21851C2F200010020087636
:10110000FFE79DF80B008DF81700FFE79DF817002B
:1011100006B080BD40F21850C2F20000C0697047AE
:1011200042F21001C4F20201086840F08000086039
:101130000020704780B588B0069005910393029215
:1011400001208DF8070000208DF806008DF80500BD
:10115000FFE740F21850C2F20000007E012804D1DF
:10116000FFE702208DF81F0076E040F21851C2F22E
:10117000000101200876FFE7FFE74CF25030FFF74F
:1011800011FD8DF807009DF80700002857D1FFE7F3
:101190000698012804D1FFE701208DF805000CE036
:1011A0000698022804D1FFE702208DF8050003E02D
:1011B00004208DF80500FFE7FFE700208DF806000A
:1011C000FFE79DF806009DF80510884236DAFFE734
:1011D00005989DF806C000EB4C000299039A4FEA6F
:1011E0000C1E2023A3EB0C1302FA03F321FA0EF1D9
:1011F00019436FF01F0303EB0C13DA40002B58BFA9
:10120000114689B2FFF77EFC4CF25030FFF7CAFC62
:101210008DF8070042F21001C4F20201086820F0C4
:10122000010008609DF8070008B1FFE706E0FFE74E
:101230009DF8060001308DF80600C2E7FFE7FFE7E2
:1012400040F21851C2F2000100200876FFE79DF835
:1012500007008DF81F00FFE79DF81F0008B080BD54
:1012600081B000208DF8030042F21000C4F20200A9
:101270000068000600281CD5FFE742F20401C4F212
:10128000020140F22310C4F26750086048F6AB1028
:10129000CCF6EF50086042F21000C4F20200006881
:1012A0000006002804D5FFE701208DF80300FFE7C2
:1012B000FFE79DF8030001B0704700008AB0099075
:1012C000089100200790FFE7089800680799C84038
:1012D000002800F09781FFE708980068079A01212D
:1012E0009140084006900698002800F08781FFE7AB
:1012F0000898406800F00300012807D0FFE708982D
:10130000406800F0030002282FD1FFE709988068A9
:10131000059007984100032000FA01F105988843E1
:1013200005900898C0680799490000FA01F10598EE
:1013300008430590059809998860099840680590C8
:101340000799012000FA01F1059888430590089853
:101350004068C0F30010079900FA01F105980843AE
:101360000590059809994860FFE70898406800F0E3
:101370000300032818D0FFE70998C0680590079874
:101380004100032000FA01F1059888430590089870
:1013900080680799490000FA01F105980843059013
:1013A00005980999C860FFE70898406800F00300B5
:1013B000022826D1FFE7099807996FF0030202EA95
:1013C00051010844006A0590079800F00700810069
:1013D0000F2000FA01F105988843059008980069EC
:1013E000079901F00701890000FA01F10598084307
:1013F000059005980999079B02EA53021144086277
:10140000FFE709980068059007984100032000FA5B
:1014100001F10598884305900898406800F00300A2
:101420000799490000FA01F10598084305900598CD
:1014300009990860089880798007002800F0DD800D
:10144000FFE7FFE741F21800C4F20200016841F033
:1014500001010160006800F0010004900498FFE7BA
:10146000079820F003000821C4F2010140580590BC
:10147000079800F0030081000F2000FA01F10598A1
:10148000884305900998B0F1904F03D1FFE7002001
:10149000039034E0099840F20041C4F6000188420C
:1014A00003D1FFE70120029026E0099840F60001F1
:1014B000C4F60001884203D1FFE70220019018E042
:1014C000099840F60041C4F60001884203D1FFE7C5
:1014D000032000900AE0099941F20002C4F60002DC
:1014E0000520914208BF04200090FFE7009801907A
:1014F000FFE701980290FFE702980390FFE7039847
:10150000079901F00301890000FA01F105980843E9
:1015100005900598079921F003010822C4F2010201
:10152000885040F20040C4F201000068059006991E
:1015300005988843059008988079C00728B1FFE78F
:101540000699059808430590FFE7059840F2004189
:10155000C4F20101086040F20440C4F201000068D6
:10156000059006990598884305900898807980072A
:10157000002805D5FFE70699059808430590FFE781
:10158000059840F20441C4F20101086040F20840AD
:10159000C4F20100006805900699059888430590FB
:1015A00008988079C006002805D5FFE706990598B8
:1015B00008430590FFE7059840F20841C4F2010195
:1015C000086040F20C40C4F20100006805900699E2
:1015D000059888430590089880798006002805D5ED
:1015E000FFE70699059808430590FFE7059840F244
:1015F0000C41C4F201010860FFE7FFE707980130E2
:10160000079061E60AB0704782B00190ADF8021011
:101610008DF801209DF8010028B1FFE7BDF8020018
:101620000199886104E0BDF8020001998862FFE732
:1016300002B0704740F26850C2F200000068704784
:1016400083B001900091019890F8410020283BD18F
:10165000FFE7FFE7019890F84000012804D1FFE779
:1016600002208DF80B0033E00199012081F8400041
:10167000FFE7FFE70199242081F841000198016804
:10168000086820F00100086001980168086820F4EB
:1016900080500860009A019801680868104308604B
:1016A00001980168086840F0010008600199202055
:1016B00081F84100FFE70199002081F84000FFE731
:1016C00000208DF80B0003E002208DF80B00FFE7EF
:1016D0009DF80B0003B0704784B00290019102980E
:1016E00090F84100202840D1FFE7FFE7029890F8EA
:1016F0004000012804D1FFE702208DF80F0038E0F8
:101700000299012081F84000FFE7FFE702992420B9
:1017100081F8410002980168086820F00100086023
:101720000298006800680090009820F470600090B3
:101730000199009840EA01200090009802990968F8
:10174000086002980168086840F00100086002998A
:10175000202081F84100FFE70299002081F8400035
:10176000FFE700208DF80F0003E002208DF80F0046
:10177000FFE79DF80F0004B07047000080B584B00B
:1017800003900398006880690290039800680068DD
:1017900001900398406B30B1FFE70398436B0299C7
:1017A000019A9847FFE704B080BD000080B582B081
:1017B0000090009820B9FFE701208DF8070073E042
:1017C000009890F8410040B9FFE70099002081F8A7
:1017D0004000009800F088FAFFE70099242081F883
:1017E000410000980168086820F001000860009836
:1017F0000168406820F0706008610098016888689E
:1018000020F4004088600098C068012807D1FFE7F5
:1018100000980168806840F40040886006E0009805
:101820000168806840F404408860FFE70098C06861
:10183000022806D1FFE7009801684FF40060486075
:10184000FFE700980168486848F20002C0F20022F1
:101850001043486000980168C86820F40040C860E0
:10186000009A1168106953699269184340EA02208E
:10187000C860009A1168D069126A10430860009825
:101880000168086840F00100086000990020486481
:10189000009A202182F8411000990863009981F88C
:1018A00042008DF80700FFE79DF8070002B080BDF9
:1018B00080B588B0DDF828C00690ADF81610049207
:1018C000ADF80E30069890F84100202840F0F680E0
:1018D000FFE7FFE7069890F84000012804D1FFE7F2
:1018E00002208DF81F00EDE00699012081F84000EC
:1018F000FFE7FFE7FFF79EFE0290069802996A460F
:1019000011604FF400410122192302F08BFF20B136
:10191000FFE701208DF81F00D4E00699222081F80E
:1019200041000699102081F8420006990020486481
:101930000499069A5162BDF80E10069A51850699CF
:1019400048630698408DB0F5807F14D3FFE7069971
:10195000FF2008850698BDF8161090F82820EC4660
:1019600042F20043C8F20003CCF800304FF080731D
:1019700002F032FF14E00698408D0699088506981B
:10198000BDF8161090F82820EC4642F20043C8F249
:101990000003CCF800304FF0007302F01DFFFFE7AA
:1019A000FFE70698408D00285FD0FFE706980A9968
:1019B000029A02F07FFF20B1FFE701208DF81F009F
:1019C00080E006980068406A0699496A087006999E
:1019D000486A013048620699088D013808850699E1
:1019E000488D013848850698408DE8B3FFE7069892
:1019F000008DC8BBFFE706980A9B02996A461160F2
:101A00008021002202F00EFF20B1FFE701208DF8B7
:101A10001F0057E00698408DB0F5807F11D3FFE797
:101A20000699FF2008850698BDF8161090F8282022
:101A3000EC460023CCF800304FF0807302F0CCFE6F
:101A400011E00698408D069908850698BDF8161095
:101A500090F82820EC460023CCF800304FF00073BB
:101A600002F0BAFEFFE7FFE79BE706980A99029AA1
:101A700002F09EFF20B1FFE701208DF81F0021E05A
:101A8000069801682020C86106990A6851684EF6D8
:101A90000003CFF6006319405160069981F84100B8
:101AA0000699002081F84200FFE70699002081F89E
:101AB0004000FFE700208DF81F0003E002208DF8B2
:101AC0001F00FFE79DF81F0008B080BD80B588B0FB
:101AD000DDF828C00690ADF816100492ADF80E306F
:101AE000069890F84100202840F0F580FFE7FFE7D6
:101AF000069890F84000012804D1FFE702208DF8F5
:101B00001F00ECE00699012081F84000FFE7FFE7A5
:101B1000FFF790FD0290069802996A4611604FF413
:101B200000410122192302F07DFE20B1FFE70120D0
:101B30008DF81F00D3E00699212081F84100069915
:101B4000102081F842000699002048640499069A02
:101B50005162BDF80E10069A5185069948630698A1
:101B6000408DB0F5807F14D3FFE70699FF200885EC
:101B70000698BDF8161090F82820EC4642F20003B3
:101B8000C8F20003CCF800304FF0807302F024FE5E
:101B900014E00698408D069908850698BDF8161041
:101BA00090F82820EC4642F20003C8F20003CCF87B
:101BB00000304FF0007302F00FFEFFE7FFE70698DA
:101BC000408D00285ED0FFE706980A99029A02F03D
:101BD00035FF20B1FFE701208DF81F007FE0069858
:101BE0000168406A007888620699486A0130486254
:101BF0000699488D013848850699088D0138088571
:101C00000698408DE8B3FFE70698008DC8BBFFE754
:101C100006980A9B02996A4611608021002202F010
:101C200001FE20B1FFE701208DF81F0057E0069864
:101C3000408DB0F5807F11D3FFE70699FF2008851E
:101C40000698BDF8161090F82820EC460023CCF832
:101C500000304FF0807302F0BFFD11E00698408D18
:101C6000069908850698BDF8161090F82820EC46CD
:101C70000023CCF800304FF0007302F0ADFDFFE719
:101C8000FFE79CE706980A99029A02F091FE20B1BC
:101C9000FFE701208DF81F0021E006980168202051
:101CA000C86106990A6851684EF60003CFF60063D2
:101CB00019405160069981F841000699002081F889
:101CC0004200FFE70699002081F84000FFE700206E
:101CD0008DF81F0003E002208DF81F00FFE79DF83C
:101CE0001F0008B080BD000080B58CB00B900020B4
:101CF0000A9009900890079006900B98006845F2AA
:101D00000041C4F20001884239D1FFE7FFE741F208
:101D10001400C4F20200016841F4802101600068EF
:101D200000F4802005900598FFE7C020069012205F
:101D30000790012008900320099004200A9040F2A7
:101D40000040C4F6000006A9FFF7B8FAFFE741F229
:101D50001C00C4F20200016841F400110160006837
:101D600000F4001004900498FFE71F200190002267
:101D7000114600F0D5F8019800F0C8F841E00B9842
:101D8000006845F60001C4F20001884238D1FFE73F
:101D9000FFE741F21400C4F20200016841F400318F
:101DA0000160006800F4003003900398FFE74FF4EF
:101DB000C060069012200790002008900320099030
:101DC00004200A904FF0904006A9FFF777FAFFE74A
:101DD00041F21C00C4F20200016841F4800101607C
:101DE000006800F4800002900298FFE72120009034
:101DF0000022114600F094F8009800F087F8FFE701
:101E0000FFE70CB080BD000040F20400C2F2000009
:101E1000027840F26851C2F200010868104408607C
:101E20007047000080B582B042F20001C4F20201A6
:101E3000086840F010000860032000F08BF80020D4
:101E4000019000F005F800F03BF8019802B080BD69
:101E500080B582B0009040F20000C2F2000000683D
:101E600040F20401C2F200010A784FF47A71B1FB2A
:101E7000F2F1B0FBF1F001F0E1FA20B1FFE701204F
:101E80008DF8070018E000980F280DD8FFE700999B
:101E90004FF0FF30002200F043F8009840F20801B4
:101EA000C2F20001086003E001208DF8070003E0A2
:101EB00000208DF80700FFE79DF8070002B080BD05
:101EC00080B582B0FFE741F21800C4F20200016859
:101ED00041F001010160006800F0010001900198EB
:101EE000FFE7FFE741F21C00C4F20200016841F085
:101EF00080510160006800F0805000900098FFE77A
:101F0000072000F027F802B080BD000080B582B045
:101F10008DF807009DF9070004F07EF802B080BD3F
:101F200080B586B08DF817000491039200200290CE
:101F300004F08AF802909DF9170001900298049924
:101F4000039A02F03BFF0146019804F085F806B0C1
:101F500080BD000080B582B00190019804F09EF829
:101F600002B080BDF0B589B00790079820B9FFE7AF
:101F700001208DF82300DAE0079890F8A90240B913
:101F8000FFE70799002081F8A802079800F0D4F82D
:101F9000FFE70799032081F8A9020798006803F07A
:101FA000E1FF00208DF81B00FFE79DF81B0007995B
:101FB0004968884244D2FFE707989DF81B1001EB5F
:101FC000810100EBC101012081F829009DF81B006F
:101FD000079900EB800201EBC20181F828009DF80F
:101FE0001B00079900EB800201EBC201C88607982D
:101FF0009DF81B1001EB810100EBC101002081F86D
:102000002B0007999DF81B2002EB820201EBC20115
:10201000886307999DF81B2002EB820201EBC20145
:10202000C86307999DF81B2002EB820201EBC201F5
:102030000864FFE79DF81B0001308DF81B00B4E732
:1020400000208DF81B00FFE79DF81B0007994968E9
:1020500088423ED2FFE707989DF81B1001EB8101F3
:1020600000EBC101002081F869019DF81B10079A5F
:1020700001EB810302EBC30282F8681107999DF816
:102080001B2002EB820201EBC20181F86B01079970
:102090009DF81B2002EB820201EBC201C1F878011E
:1020A00007999DF81B2002EB820201EBC201C1F8E7
:1020B0007C0107999DF81B2002EB820201EBC20113
:1020C000C1F88001FFE79DF81B0001308DF81B006F
:1020D000BAE7DDF81CE0CDF814E0DEF80000DEF829
:1020E0000410DEF80820DEF80C30DEF810C0DEF850
:1020F0001440DEF81850DEF81C60DEF82070EE4662
:10210000CEF81070CEF80C60CEF80850CEF804402F
:10211000CEF800C003F002FF0799002081F82400E8
:10212000079A012182F8A9128DF82300FFE79DF894
:10213000230009B0F0BD000080B588B007900020F2
:10214000069005900490039002900798006845F669
:102150000041C4F2000188422FD1FFE7FFE741F2BE
:102160001400C4F20200016841F40031016000680B
:1021700000F4003001900198FFE74FF4C050029046
:102180000220039000200490032005900E2006906A
:102190004FF0904002A9FFF791F8FFE741F21C00D1
:1021A000C4F20200016841F400010160006800F41B
:1021B000000000900098FFE7FFE708B080BD000036
:1021C00082B001908DF803104EF61051CEF200014E
:1021D000086820F0040008609DF80300012802D17F
:1021E000FFE730BF03E040BF20BF20BFFFE702B0E2
:1021F0007047000080B58AB00890002007900690D4
:102200008DF8170008988078C007002800F0D28069
:10221000FFE741F21C00C4F202000068C000002881
:1022200013D4FFE7FFE741F21C00C4F2020001688B
:1022300041F080510160006800F0805004900498E3
:10224000FFE701208DF81700FFE747F20000C4F216
:1022500000000068C005002822D4FFE747F2000113
:10226000C4F20001086840F480700860FFF7E2F9EA
:102270000790FFE747F20000C4F200000068C005C5
:1022800000280CD4FFE7FFF7D5F90799401A652815
:1022900004D3FFE703208DF8270077E1EAE7FFE7A3
:1022A00041F22000C4F20200006800F44070069081
:1022B0000698002864D0FFE706980899496801F459
:1022C000407188425CD0FFE741F22001C4F2020174
:1022D000086820F44070069040F24042C4F2422266
:1022E0000120106000201060069808609DF818001A
:1022F000C007002843D0FFE7FFF79CF90790FFE7EE
:10230000012038B9FFE741F20000C4F20200006882
:10231000039020E0002038B9FFE741F22000C4F22A
:1023200002000068029013E0012038B9FFE741F293
:102330000400C4F202000068019006E041F22400AB
:10234000C4F2020000680190FFE701980290FFE7E5
:1023500002980390FFE70398800700280ED4FFE758
:10236000FFF768F90799401A41F28931884204D38E
:10237000FFE703208DF8270008E1C1E7FFE7FFE74B
:1023800041F22001C4F20201086820F44070089A6A
:102390005268104308609DF81700012809D1FFE733
:1023A00041F21C01C4F20201086820F0805008606C
:1023B000FFE7FFE708980078C00760B1FFE741F248
:1023C0003001C4F20201086820F00300089A926804
:1023D00010430860FFE708980078800700280CD5B4
:1023E000FFE741F23001C4F20201086820F44030F6
:1023F000089AD26810430860FFE708980078400701
:1024000000280CD5FFE741F23001C4F20201086850
:1024100020F44020089A126910430860FFE70898EA
:102420000078800600280CD5FFE741F23001C4F2A5
:102430000201086820F01000089AD2691043086071
:10244000FFE708988078800700280CD5FFE741F265
:102450000401C4F20201086820F48000089A926B1B
:1024600010430860FFE708980078400600280CD564
:10247000FFE741F23001C4F20201086820F02000B9
:10248000089A126A10430860FFE70898007800076E
:1024900000280CD5FFE741F23001C4F202010868C0
:1024A00020F44010089A526910430860FFE708982A
:1024B0000078C00600280CD5FFE741F23001C4F2D5
:1024C0000201086820F44000089A926910430860ED
:1024D000FFE708984078800700280CD5FFE741F215
:1024E0000401C4F20201086820F40000089AD26ACC
:1024F00010430860FFE708980078000600280CD514
:10250000FFE741F22C01C4F20201086820F4F870E0
:10251000089A526A10430860FFE708984078C0079D
:1025200060B1FFE741F22C01C4F20201086820F417
:102530007850089A926A10430860FFE7089840783C
:10254000C00600280CD5FFE741F23001C4F20201B9
:10255000086820F48070089A126B10430860FFE747
:1025600008984078800600280CD5FFE741F230013A
:10257000C4F20201086820F40070089A526B1043FC
:102580000860FFE700208DF82700FFE79DF827008F
:102590000AB080BD80B58EB00C900B9100200A90DF
:1025A0000C9820B9FFE701208DF8370073E10B98F4
:1025B00042F20001C4F20201096801F007018842F9
:1025C00016D9FFE742F20000C4F20200016821F0D0
:1025D00007010B9A11430160006800F007000B9996
:1025E000884204D0FFE701208DF8370053E1FFE770
:1025F0000C980078800700280CD5FFE741F2040111
:10260000C4F20201086820F0F0000C9A92681043AE
:102610000860FFE70C980078C007002800F0D6801B
:10262000FFE70C984068012835D1FFE7002038B952
:10263000FFE741F20000C4F202000068099020E0C8
:10264000012038B9FFE741F22000C4F2020000681F
:10265000089013E0012038B9FFE741F20400C4F20A
:1026600002000068079006E041F22400C4F2020074
:1026700000680790FFE707980890FFE7089809901F
:10268000FFE709988003002804D4FFE701208DF8B4
:10269000370000E16FE00C984068022835D1FFE771
:1026A000002038B9FFE741F20000C4F202000068E0
:1026B000069020E0012038B9FFE741F22000C4F283
:1026C00002000068059013E0012038B9FFE741F2ED
:1026D0000400C4F202000068049006E041F2240005
:1026E000C4F2020000680490FFE704980590FFE739
:1026F00005980690FFE706988001002804D4FFE7BC
:1027000001208DF83700C6E034E0002038B9FFE73B
:1027100041F20000C4F202000068039020E00120B2
:1027200038B9FFE741F22000C4F2020000680290CD
:1027300013E0012038B9FFE741F20400C4F20200BF
:102740000068019006E041F22400C4F20200006833
:102750000190FFE701980290FFE702980390FFE7DE
:1027600003988007002804D4FFE701208DF8370084
:1027700091E0FFE7FFE741F20401C4F202010868BB
:1027800020F003000C9A526810430860FEF752FFD5
:102790000A90FFE741F20400C4F20200006800F072
:1027A0000C000C994968B0EB810F0ED0FFE7FEF7E3
:1027B00041FF0A99401A41F28931884204D3FFE768
:1027C00003208DF8370066E0E4E7FFE70B9842F25C
:1027D0000001C4F20201096801F00701884216D223
:1027E000FFE742F20000C4F20200016821F0070195
:1027F0000B9A11430160006800F007000B998842B2
:1028000004D0FFE701208DF8370044E0FFE70C9883
:102810000078400700280CD5FFE741F20401C4F21C
:102820000201086820F4E0600C9AD2681043086046
:10283000FFE70C980078000700280DD5FFE741F26C
:102840000401C4F20201086820F460500C9A126975
:1028500040EAC2000860FFE700F04CF841F20401D2
:10286000C4F202010968C9B20A0948F27821C0F627
:102870000001895CC84040F20001C2F2000108601A
:1028800040F20800C2F200000068FFF7E1FA002001
:102890008DF83700FFE79DF837000EB080BD0000CF
:1028A00040F20000C2F200000068704780B5FFF7F8
:1028B000F7FF41F20401C4F202010968C1F30222E8
:1028C00048F28821C0F60001895CC84080BD000044
:1028D00080B5FFF7E5FF41F20401C4F20201096887
:1028E000C1F3C22248F28821C0F60001895CC840C9
:1028F00080BD000080B586B0002005900490039054
:102900000290019041F20400C4F2020000680590B8
:10291000059800F00C0001460091002841D0FFE727
:102920000098042804D0FFE70098082806D039E072
:1029300041F20020C0F27A00019039E00598C0F31E
:10294000834148F29020C0F60000405C029041F2C2
:102950002C00C4F20200006800F00F0148F2A02031
:10296000C0F60000405C04909DF81600C00768B1F6
:10297000FFE7049A41F20020C0F27A0000231946D2
:10298000FDF772FC02994843039007E0029840F675
:102990000011C0F23D0148430390FFE70398019006
:1029A00006E0FFE741F20020C0F27A000190FFE765
:1029B000019806B080BD000080B5AEB02C902C9878
:1029C00028B9FFE701208DF8B70000F028BD2C984A
:1029D0000078C007002800F03181FFE741F20400D1
:1029E000C4F20200006800F00C00042813D0FFE7D6
:1029F00041F20400C4F20200006800F00C00082854
:102A000043D1FFE741F20400C4F202000068C003B2
:102A100000283AD5FFE7002038B9FFE741F200006F
:102A2000C4F202000068279020E0012038B9FFE7D7
:102A300041F22000C4F202000068269013E0012059
:102A400038B9FFE741F20400C4F2020000682590A3
:102A500006E041F22400C4F2020000682590FFE77E
:102A600025982690FFE726982790FFE72798800370
:102A7000002809D5FFE72C98406828B9FFE7012016
:102A80008DF8B70000F0CBBCD7E0FFE72C9840688A
:102A9000B0F5803F09D1FFE741F20001C4F2020125
:102AA000086840F48030086032E02C98406868B9CB
:102AB000FFE741F20001C4F20201086820F480300F
:102AC0000860086820F48020086020E02C984068A6
:102AD000B0F5A02F0DD1FFE741F20001C4F20201D1
:102AE000086840F480200860086840F4803008607E
:102AF0000CE041F20001C4F20201086820F48030C9
:102B00000860086820F480200860FFE7FFE7FFE71F
:102B1000FFE741F22C01C4F20201086820F00F0027
:102B20002C9A9268104308602C984068002842D084
:102B3000FFE7FEF77FFD2B90FFE7002038B9FFE7A6
:102B400041F20000C4F202000068249020E001205D
:102B500038B9FFE741F22000C4F202000068239078
:102B600013E0012038B9FFE741F20400C4F202008B
:102B70000068229006E041F22400C4F202000068DE
:102B80002290FFE722982390FFE723982490FFE705
:102B90002498800300280DD4FFE7FEF74BFD2B9906
:102BA000401A652805D3FFE703208DF8B70000F031
:102BB00036BCC2E740E0FEF73DFD2B90FFE700206A
:102BC00038B9FFE741F20000C4F20200006821902A
:102BD00020E0012038B9FFE741F22000C4F20200F2
:102BE0000068209013E0012038B9FFE741F20400AB
:102BF000C4F2020000681F9006E041F22400C4F213
:102C0000020000681F90FFE71F982090FFE72098C0
:102C10002190FFE72198800300280CD5FFE7FEF7FD
:102C200009FD2B99401A652804D3FFE703208DF88E
:102C3000B700F4E3C3E7FFE7FFE7FFE72C9800786E
:102C40008007002840F10381FFE741F20400C4F24D
:102C50000200006810F00C0F13D0FFE741F20400EF
:102C6000C4F20200006800F00C00082850D1FFE711
:102C700041F20400C4F202000068C003002847D4F7
:102C8000FFE7002038B9FFE741F20000C4F202007C
:102C900000681E9020E0012038B9FFE741F22000D3
:102CA000C4F2020000681D9013E0012038B9FFE76C
:102CB00041F20400C4F2020000681C9006E041F2F8
:102CC0002400C4F2020000681C90FFE71C981D90CD
:102CD000FFE71D981E90FFE71E988007002809D582
:102CE000FFE72C980069012804D0FFE701208DF848
:102CF000B70094E341F20001C4F20201086820F039
:102D0000F8002C9A526940EAC2000860FFE79DE093
:102D10002C980069002852D0FFE70021C4F242211C
:102D200001200860FEF786FC2B90FFE7002038B9F1
:102D3000FFE741F20000C4F2020000681B9020E0AF
:102D4000012038B9FFE741F22000C4F20200006818
:102D50001A9013E0012038B9FFE741F20400C4F2F1
:102D600002000068199006E041F22400C4F202005B
:102D700000681990FFE719981A90FFE71A981B90BE
:102D8000FFE71B98800700280CD4FFE7FEF752FCF2
:102D90002B99401A032804D3FFE703208DF8B700CE
:102DA0003DE3C3E741F20001C4F20201086820F0EC
:102DB000F8002C9A526940EAC200086045E0002100
:102DC000C4F2422100200860FEF734FC2B90FFE79C
:102DD000002038B9FFE741F20000C4F202000068A9
:102DE000189020E0012038B9FFE741F22000C4F23A
:102DF00002000068179013E0012038B9FFE741F2A4
:102E00000400C4F202000068169006E041F22400BB
:102E1000C4F2020000681690FFE716981790FFE7CB
:102E200017981890FFE71898800700280CD5FFE73F
:102E3000FEF700FC2B99401A032804D3FFE7032078
:102E40008DF8B700EBE2C3E7FFE7FFE7FFE72C9859
:102E500000780007002840F19580FFE72C988069F2
:102E6000002847D0FFE740F28041C4F24221012010
:102E70000860FEF7DFFB2B90FFE7012038B9FFE782
:102E800041F20000C4F202000068159020E0012029
:102E900038B9FFE741F22000C4F202000068149044
:102EA00013E0012038B9FFE741F20400C4F2020048
:102EB0000068139006E041F22400C4F202000068AA
:102EC0001390FFE713981490FFE714981590FFE70D
:102ED0001598800700280CD4FFE7FEF7ABFB2B9971
:102EE000401A032804D3FFE703208DF8B70096E2C9
:102EF000C3E746E040F28041C4F24221002008606E
:102F0000FEF798FB2B90FFE7012038B9FFE741F26D
:102F10000000C4F202000068129020E0012038B9DD
:102F2000FFE741F22000C4F202000068119013E0B4
:102F3000012038B9FFE741F20400C4F20200006842
:102F4000109006E041F22400C4F2020000681090E4
:102F5000FFE710981190FFE711981290FFE7129881
:102F6000800700280CD5FFE7FEF764FB2B99401A79
:102F7000032804D3FFE703208DF8B7004FE2C3E72F
:102F8000FFE7FFE72C9800784007002840F12781F1
:102F9000FFE700208DF8A70041F21C00C4F20200F8
:102FA0000068C000002813D4FFE7FFE741F21C00CF
:102FB000C4F20200016841F080510160006800F035
:102FC000805028902898FFE701208DF8A700FFE7A0
:102FD00047F20000C4F200000068C005002822D4B7
:102FE000FFE747F20001C4F20001086840F4807076
:102FF0000860FEF71FFB2B90FFE747F20000C4F2CA
:1030000000000068C00500280CD4FFE7FEF712FBA3
:103010002B99401A652804D3FFE703208DF8B700E9
:10302000FDE1EAE7FFE7FFE72C98C068012809D136
:10303000FFE741F22001C4F20201086840F00100FC
:10304000086031E02C98C06868B9FFE741F22001C0
:10305000C4F20201086820F001000860086820F04E
:10306000040008601FE02C98C06805280DD1FFE718
:1030700041F22001C4F20201086840F00400086037
:10308000086840F0010008600CE041F22001C4F241
:103090000201086820F001000860086820F00400C0
:1030A0000860FFE7FFE7FFE7FFE72C98C06800280C
:1030B00043D0FFE7FEF7BEFA2B90FFE7012038B9B7
:1030C000FFE741F20000C4F2020000680F9020E028
:1030D000002038B9FFE741F22000C4F20200006886
:1030E0000E9013E0012038B9FFE741F20400C4F26A
:1030F000020000680D9006E041F22400C4F20200D4
:1031000000680D90FFE70D980E90FFE70E980F9066
:10311000FFE70F98800700280ED4FFE7FEF78AFA32
:103120002B99401A41F28931884204D3FFE70320EA
:103130008DF8B70073E1C1E742E0FEF77BFA2B9010
:10314000FFE7012038B9FFE741F20000C4F20200B6
:1031500000680C9020E0002038B9FFE741F2200021
:10316000C4F2020000680B9013E0012038B9FFE7B9
:1031700041F20400C4F2020000680A9006E041F245
:103180002400C4F2020000680A90FFE70A980B903E
:10319000FFE70B980C90FFE70C98800700280ED5EE
:1031A000FFE7FEF747FA2B99401A41F2893188422E
:1031B00004D3FFE703208DF8B70030E1C1E7FFE754
:1031C0009DF8A700012809D1FFE741F21C01C4F2D4
:1031D0000201086820F080500860FFE7FFE72C98A4
:1031E000C069002800F01781FFE741F20400C4F233
:1031F0000200006800F00C00082800F0E680FFE7FD
:103200002C98C069022840F09980FFE76021C4F241
:10321000422100200860FEF70DFA2B90FFE7002006
:1032200038B9FFE741F20000C4F2020000680990DB
:1032300020E0012038B9FFE741F22000C4F202008B
:103240000068089013E0012038B9FFE741F204005C
:10325000C4F202000068079006E041F22400C4F2C4
:10326000020000680790FFE707980890FFE70898BA
:103270000990FFE70998800100280CD5FFE7FEF7C9
:10328000D9F92B99401A032804D3FFE703208DF8BE
:10329000B700C4E0C3E741F20401C4F202010868C8
:1032A00020F474102C9A136A526A1A43104308606F
:1032B0006021C4F2422101200860FEF7BBF92B9087
:1032C000FFE7002038B9FFE741F20000C4F2020036
:1032D0000068069020E0012038B9FFE741F22000A5
:1032E000C4F202000068059013E0012038B9FFE73E
:1032F00041F20400C4F202000068049006E041F2CA
:103300002400C4F2020000680490FFE704980590CE
:10331000FFE705980690FFE70698800100280CD487
:10332000FFE7FEF787F92B99401A032804D3FFE73C
:1033300003208DF8B70072E0C3E745E06021C4F2D6
:10334000422100200860FEF775F92B90FFE700206E
:1033500038B9FFE741F20000C4F2020000680390B0
:1033600020E0012038B9FFE741F22000C4F202005A
:103370000068029013E0012038B9FFE741F2040031
:10338000C4F202000068019006E041F22400C4F299
:10339000020000680190FFE701980290FFE70298A1
:1033A0000390FFE70398800100280CD5FFE7FEF7A4
:1033B00041F92B99401A032804D3FFE703208DF825
:1033C000B7002CE0C3E7FFE724E02C98C069012890
:1033D00004D1FFE701208DF8B70020E041F204009E
:1033E000C4F2020000682A902A9800F480302C99D8
:1033F000096A884208D1FFE72A9800F470102C99D6
:10340000496A884204D0FFE701208DF8B70006E042
:10341000FFE7FFE7FFE700208DF8B700FFE79DF823
:10342000B7002EB080BD00004EF21001CEF20001B8
:10343000086840F0020008607047000080B582B064
:103440000190019801F008FD02B080BD4EF210011C
:10345000CEF20001086820F002000860704700000A
:1034600081B0009001B0704781B0009001B070470A
:1034700081B0009001B0704785B003900291FFE7E2
:10348000039890F83C00012804D1FFE702208DF852
:10349000130089E00399012081F83C00FFE7FFE772
:1034A0000399022081F83D0003980068406801906C
:1034B00003980068806800900398006842F6004115
:1034C000C4F20101884209D0FFE70398006843F283
:1034D0000041C4F2010188420AD1FFE7019820F4BB
:1034E0007000019002984168019808430190FFE73D
:1034F000019820F07000019002980168019808433B
:10350000019001980399096848600398006842F6A1
:103510000041C4F2010188422AD0FFE70398006805
:10352000B0F1804F24D0FFE70398006840F20041DB
:10353000C4F2000188421BD0FFE70398006840F600
:103540000001C4F20001884212D0FFE7039800682E
:1035500043F20041C4F20101884209D0FFE7039819
:10356000006844F20001C4F2010188420ED1FFE775
:10357000009820F08000009002988168009808432D
:1035800000900098039909688860FFE7039901207B
:1035900081F83D00FFE70399002081F83C00FFE738
:1035A00000208DF81300FFE79DF8130005B0704769
:1035B00080B582B00090009820B9FFE701208DF817
:1035C000070045E0009890F83D0040B9FFE70099FA
:1035D000002081F83C00009800F03EF8FFE70099D9
:1035E000022081F83D00009951F8040B01F0CAFC5B
:1035F0000099012081F84800FFE70099012081F837
:103600003E00009981F83F00009981F84000009940
:1036100081F84100009981F84200009981F8430047
:10362000FFE7FFE70099012081F84400009981F845
:103630004500009981F84600009981F84700FFE7AE
:103640000099012081F83D0000208DF80700FFE778
:103650009DF8070002B080BD80B584B00390039848
:10366000006840F20041C4F20001884219D1FFE72E
:10367000FFE741F21C00C4F20200016841F00201C0
:103680000160006800F0020002900298FFE71D2030
:10369000019000221146FEF743FC0198FEF736FC2C
:1036A000FFE704B080BD000083B00190019890F85E
:1036B0003D00012804D0FFE701208DF80B0060E0F9
:1036C0000199022081F83D0001980168C86840F026
:1036D0000100C8600198006842F60041C4F201018F
:1036E00088422AD0FFE701980068B0F1804F24D0CB
:1036F000FFE70198006840F20041C4F200018842EF
:103700001BD0FFE70198006840F60001C4F20001F9
:10371000884212D0FFE70198006843F20041C4F2EA
:103720000101884209D0FFE70198006844F20001D6
:10373000C4F20101884219D1FFE70198006880684E
:103740000721C0F2010108400090009806280CD023
:10375000FFE70098B0F5803F07D0FFE701980168C8
:10376000086840F001000860FFE706E00198016882
:10377000086840F001000860FFE700208DF80B00AA
:10378000FFE79DF80B0003B07047000080B586B0DE
:103790000490039100208DF80B00FFE7049890F847
:1037A0003C00012804D1FFE702208DF81700AEE0AD
:1037B0000499012081F83C00FFE7FFE7049902200B
:1037C00081F83D00049800688068019001984FF6E8
:1037D0008871CFF6FE7108400190019820F47F4077
:1037E0000190019804990968886003980068009026
:1037F000002872D0FFE7009810286ED0FFE70098ED
:1038000020286AD0FFE70098302866D0FFE70098AC
:10381000402855D0FFE70098502837D0FFE70098A0
:10382000602840D0FFE7009870280BD0FFE7009891
:10383000B0F5805F05D0FFE70098B0F5005F16D0C7
:1038400052E055E004980068039B5A689968DB6869
:1038500001F058FC0498006880680190019840F0DD
:1038600077000190019804990968886040E0049805
:103870000068039B5A689968DB6801F043FC049870
:103880000168886840F48040886031E004980068EE
:10389000039A5168D26801F065FC049800685021D1
:1038A00001F04AFC24E004980068039A5168D26849
:1038B00001F080FC04980068602101F03DFC17E0F5
:1038C00004980068039A5168D26801F04BFC049890
:1038D0000068402101F030FC0AE004980068039978
:1038E000096801F029FC03E001208DF80B00FFE7D7
:1038F0000499012081F83D00FFE70499002081F838
:103900003C00FFE79DF80B008DF81700FFE79DF8DE
:10391000170006B080BD000081B0009001B0704774
:1039200080B582B0019001980068006900F0020142
:103930000020B0EB510F28D0FFE701980068C06865
:1039400000F002010020B0EB510F1DD0FFE70198FD
:1039500001686FF002000861019901200877019861
:1039600000688069800720B1FFE70198FFF7D4FF66
:1039700006E0019800F02EF9019800F02FF9FFE71A
:10398000019900200877FFE7FFE7019800680069C8
:1039900000F004010020B0EB910F29D0FFE701985F
:1039A0000068C06800F004010020B0EB910F1ED049
:1039B000FFE7019801686FF0040008610199022097
:1039C000087701980068806910F4407F04D0FFE711
:1039D0000198FFF7A1FF06E0019800F0FBF80198BD
:1039E00000F0FCF8FFE7019900200877FFE7FFE708
:1039F00001980068006900F008010020B0EBD10FC9
:103A000028D0FFE701980068C06800F00801002096
:103A1000B0EBD10F1DD0FFE7019801686FF00800EF
:103A2000086101990420087701980068C06980073F
:103A300020B1FFE70198FFF76FFF06E0019800F063
:103A4000C9F8019800F0CAF8FFE70199002008774B
:103A5000FFE7FFE701980068006900F0100100200F
:103A6000B0EB111F29D0FFE701980068C06800F093
:103A700010010020B0EB111F1ED0FFE70198016874
:103A80006FF010000861019908200877019800681C
:103A9000C06910F4407F04D0FFE70198FFF73CFFB6
:103AA00006E0019800F096F8019800F097F8FFE71B
:103AB000019900200877FFE7FFE701980068006997
:103AC000C00780B1FFE701980068C068C00748B12F
:103AD000FFE7019801686FF001000861019800F0AC
:103AE00081F8FFE7FFE7019800680069C1B2002094
:103AF000B0EBD11F13D0FFE701980068C068C1B2D6
:103B00000020B0EBD11F09D0FFE7019801686FF0EA
:103B1000800008610198FFF7A7FCFFE7FFE7019825
:103B20000068006900F480710020B0EB112F13D001
:103B3000FFE701980068C068C1B20020B0EBD11F58
:103B400009D0FFE7019801686FF48070086101985F
:103B5000FFF786FCFFE7FFE701980068006900F0C7
:103B600040010020B0EB911F14D0FFE701980068DE
:103B7000C06800F040010020B0EB911F09D0FFE7C2
:103B8000019801686FF040000861019800F058F852
:103B9000FFE7FFE701980068006900F020010020BE
:103BA000B0EB511F14D0FFE701980068C06800F027
:103BB00020010020B0EB511F09D0FFE701980168F8
:103BC0006FF0200008610198FFF752FCFFE7FFE764
:103BD00002B080BD81B0009001B0704781B000900C
:103BE00001B0704780B582B00190FFF71DFC0198CD
:103BF00040F23C41C2F2000188421ED1FFE7FDF7CE
:103C000097F840F20C50C2F20000016801310160E7
:103C10000068052810D1FFE7FCF716FC40F2B4015C
:103C2000C2F20001086002F0DDF940F20C51C2F26C
:103C3000000100200860FFE7FFE702B080BD000040
:103C400081B0009001B0704782B00190ADF80210D1
:103C500002B0704781B0009001B0704781B0009011
:103C600001B0704780B590B00F900F980068C069A0
:103C70000E900F98006800680D900F98006880689B
:103C80000C900E9840F60F0108400B900B98B0B9BD
:103C9000FFE79DF83800800600280FD5FFE79DF864
:103CA00034008006002809D5FFE70F98406E20B148
:103CB000FFE70F98416E8847FFE737E2FFE70B9871
:103CC000002800F0FE80FFE79DF83000C00748B9EB
:103CD000FFE70D9840F22011C0F20041084200F0C9
:103CE000F080FFE79DF83800C00788B1FFE79DF836
:103CF0003500C00760B1FFE70F9801680120086236
:103D00000F99D1F8800040F00100C1F88000FFE772
:103D10009DF838008007002811D5FFE79DF8300096
:103D2000C00760B1FFE70F980168022008620F9991
:103D3000D1F8800040F00400C1F88000FFE79DF852
:103D400038004007002811D5FFE79DF83000C00774
:103D500060B1FFE70F980168042008620F99D1F85D
:103D6000800040F00200C1F88000FFE79DF83800B5
:103D70000007002817D5FFE79DF8340080060028CB
:103D800005D4FFE79DF83000C00760B1FFE70F984A
:103D90000168082008620F99D1F8800040F00800FF
:103DA000C1F88000FFE79DF839000007002813D50F
:103DB000FFE79DF83700400700280DD5FFE70F9873
:103DC00001684FF4006008620F99D1F8800040F05C
:103DD0002000C1F88000FFE70F98D0F8800000288D
:103DE0006ED0FFE79DF83800800600280FD5FFE76A
:103DF0009DF834008006002809D5FFE70F98406E33
:103E000020B1FFE70F98416E8847FFE7FFE70F9863
:103E1000D0F880000A900F980068806800F0400099
:103E2000402806D0FFE79DF8280010F0280F3ED06C
:103E3000FFE70F9801F0F8FA0F98006880684006D5
:103E400000282FD5FFE7FFE7FFE70F98006850E84D
:103E5000020F20F040000990FFE709990F980268CF
:103E600042E802100028F0D1FFE7FFE70F98006F4B
:103E700098B1FFE70F98016F45F20540C0F60000CA
:103E800048630F98006FFDF785F828B1FFE70F989A
:103E9000006F416B8847FFE703E00F98FFF7DEFEF6
:103EA000FFE703E00F98FFF7D9FEFFE707E00F9861
:103EB000FFF7D4FE0F990020C1F88000FFE7FFE76D
:103EC00034E10F98006E012840F0F680FFE79DF87E
:103ED0003800C006002840F1EF80FFE79DF834006D
:103EE000C006002840F1E880FFE70F980168102025
:103EF00008620F98006880684006002840F18180C1
:103F0000FFE70F98006F00684068ADF82200BDF829
:103F10002200002874D0FFE7BDF822000F99B1F805
:103F2000581088426CDAFFE7BDF822000F99A1F81B
:103F30005A000F98006F8069202857D0FFE7FFE7ED
:103F4000FFE70F98006850E8000F20F4807007909A
:103F5000FFE707990F98026842E800100028F0D1A7
:103F6000FFE7FFE7FFE7FFE70F98006850E8020F61
:103F700020F001000690FFE706990F98026842E8DA
:103F800002100028F0D1FFE7FFE7FFE7FFE70F98F7
:103F9000006850E8020F20F040000590FFE7059907
:103FA0000F98026842E802100028F0D1FFE7FFE70F
:103FB0000F992020C8670F9900200866FFE7FFE7E8
:103FC0000F98006850E8000F20F010000490FFE701
:103FD00004990F98026842E800100028F0D1FFE72A
:103FE000FFE70F98006FFCF79BFFFFE70F98B0F813
:103FF0005810B0F85A20891A89B2FFF725FEFFE75A
:1040000094E00F99B1F85800B1F85A10401AADF881
:104010000E000F98B0F85A0000284CD0FFE7BDF80A
:104020000E00002847D0FFE7FFE7FFE70F98006882
:1040300050E8000F20F490700290FFE702990F986B
:10404000026842E800100028F0D1FFE7FFE7FFE731
:10405000FFE70F98006850E8020F20F00100019080
:10406000FFE701990F98026842E802100028F0D19A
:10407000FFE7FFE70F992020C8670F990020086627
:104080000F994866FFE7FFE70F98006850E8000FB8
:1040900020F010000090FFE700990F98026842E8B6
:1040A00000100028F0D1FFE7FFE70F98BDF80E10D1
:1040B000FFF7CAFDFFE739E09DF83A00C006002887
:1040C0000FD5FFE79DF832004006002809D5FFE72D
:1040D0000F9801684FF4801008620F98FFF7BAFD3F
:1040E00024E09DF83800000600280FD5FFE79DF872
:1040F00034000006002809D5FFE70F98806E20B134
:10410000FFE70F98816E8847FFE70FE09DF83800C2
:10411000400600280AD5FFE79DF834004006002835
:1041200004D5FFE70F9801F0CBF9FFE710B080BD91
:1041300080B582B00090009820B9FFE701208DF88B
:10414000070044E00098806908B1FFE700E0FFE75E
:104150000098806F40B9FFE70099002081F8740053
:10416000009800F039F8FFE700992420886700984C
:104170000168086820F001000860009801F0F0FA7A
:10418000012804D1FFE701208DF807001FE0009807
:10419000406A20B1FFE7009801F03EF8FFE7009881
:1041A0000168486820F49040486000980168886879
:1041B00020F02A00886000980168086840F001003B
:1041C0000860009801F0CCF88DF80700FFE79DF833
:1041D000070002B080BD000080B58AB009900020C1
:1041E000089007900690059004900998006844F69E
:1041F0000041C4F2000188423BD1FFE7FFE741F2F2
:104200001C00C4F20200016841F400210160006852
:1042100000F4002003900398FFE7FFE741F2140049
:10422000C4F20200016841F400210160006800F45A
:10423000002002900298FFE74FF4406004900220B3
:10424000059000200090069003200790052008901C
:1042500040F60000C4F6000004A9FDF72FF8009A0C
:10426000342001901146FDF75BFE0198FDF74EFEEC
:10427000FFE70AB080BD000080B586B004900391CE
:10428000ADF80A200498C06F202843D1FFE70398B7
:1042900020B1FFE7BDF80A0020B9FFE701208DF843
:1042A00017003BE0FFE7049890F87400012804D160
:1042B000FFE702208DF8170030E00499012081F813
:1042C0007400FFE7FFE7049900200866049800687F
:1042D00040680002002814D5FFE7FFE7FFE70498D5
:1042E000006850E8000F40F080600190FFE70199FE
:1042F0000498026842E800100028F0D1FFE7FFE7C9
:10430000FFE704980399BDF80A2001F029FC8DF815
:10431000170003E002208DF81700FFE79DF8170053
:1043200006B080BD80B582B00190FFF77DF840F205
:104330005850C2F200000078012813D1FFE740F284
:104340005851C2F200014878897840EA012140F2D0
:104350005E50C2F200000180008801F013FE00F000
:1043600065FDFFE702B080BD80B58AB00890079177
:10437000ADF81A2005930898806F202840F09480AB
:10438000FFE7079820B1FFE7BDF81A0020B9FFE763
:1043900001208DF827008BE0FFE7089890F8740063
:1043A000012804D1FFE702208DF8270080E008995A
:1043B000012081F87400FFE7FFE708990020C1F8A9
:1043C0008000089921208867FDF734F90290BDF834
:1043D0001A000899A1F85000BDF81A000899A1F830
:1043E000520008988068B0F5805F09D1FFE708980F
:1043F000006928B9FFE7002004900798039004E0C3
:104400000798049000200390FFE7FFE70899002039
:1044100081F87400FFE7FFE70898B0F8520068B32E
:10442000FFE70898029B05996A46116080210022E7
:1044300001F0BCFC20B1FFE703208DF8270037E036
:10444000049858B9FFE7039800886FF35F20089934
:104450000968088503980230039008E00498007802
:10446000089909680885049801300490FFE70899C5
:10447000B1F852000138A1F85200CDE70898029B2C
:1044800005996A4611604021002201F08FFC20B19D
:10449000FFE703208DF827000AE0089920208867AD
:1044A00000208DF8270003E002208DF82700FFE7A9
:1044B0009DF827000AB080BD85B003900291ADF849
:1044C00006200398806F202867D1FFE7029820B16B
:1044D000FFE7BDF8060020B9FFE701208DF81300C3
:1044E0005FE0FFE7039890F87400012804D1FFE72C
:1044F00002208DF8130054E00399012081F8740024
:10450000FFE7FFE702980399C864BDF80600039926
:10451000A1F85000BDF806000399A1F852000399D4
:10452000002088660399C1F88000039921208867DC
:1045300003988068B0F5805F0BD1FFE703980069AE
:1045400038B9FFE7039945F68940C0F60000886650
:1045500006E0039945F62150C0F600008866FFE7A3
:10456000FFE70399002081F87400FFE7FFE7FFE70A
:104570000398006850E8000F40F080000090FFE7CB
:1045800000990398026842E800100028F0D1FFE784
:10459000FFE700208DF8130003E002208DF81300E0
:1045A000FFE79DF8130005B07047000080B582B0AA
:1045B000019001F0F9FC02B080BD0000FFE7FEE7CA
:1045C00080B540F2B800C2F20000FDF7D7F880BD18
:1045D00080B540F20410C2F20000FDF7CFF880BDB4
:1045E00081B0009000980068806900F0020100200E
:1045F000B0EB510F05D0FFE70098016800208862FA
:10460000FFE7009800688069C00738B9FFE70098A5
:104610000168886940F001008861FFE701B07047D8
:1046200010B588B040F26452C2F20002202010702F
:104630007720507069466420086040F2B800C2F2EA
:10464000000032210223FDF741FA014640F2675093
:10465000C2F200000170007808B9FFE7FFE740F2FE
:104660006452C2F2000204920223059313700020E8
:104670005070694664200290086040F2B800C2F2AF
:10468000000006903C210391FDF720FADDF808C0F8
:104690000399049A059B8646069840F26754C2F235
:1046A0000004079484F800E04FF0010E82F800E067
:1046B0004FF0800E82F801E0EE46CEF800C0FDF724
:1046C00005FA0799087008B010BD000080B586B0E3
:1046D00004900391029204980068806900F0100130
:1046E0000120B0EB111F6FD1FFE70498006840680C
:1046F00000F00070B0F1007F07D0FFE70498016878
:10470000486840F480404860FFE7FFE7049800688D
:10471000806900F020010020B0EB511F28D1FFE795
:104720000398013018B3FFE7FCF784FF0299401AA1
:104730000399884203D8FFE70398B8B9FFE70499C3
:10474000486C40F0200048640499202081F8410022
:104750000499002081F84200FFE70499002081F8C5
:104760004000FFE701208DF8170031E0FFE7CDE7BB
:10477000049801681020C861049801682020019005
:10478000C8610498FFF72CFF019804990A685168E2
:104790004EF60003CFF6006319405160049A516C45
:1047A00041F004015164049981F84100049900200A
:1047B00081F84200FFE70499002081F84000FFE7FC
:1047C00001208DF8170003E000208DF81700FFE7A7
:1047D0009DF8170006B080BD83B0DDF80CC00290D4
:1047E000ADF806108DF80520009302980068406827
:1047F000039A20EA525049F60041CFF600410840A2
:10480000BDF806106FF39F219DF8053041EA034182
:10481000009B19431143084302990968486003B09B
:104820007047000080B586B0DDF820C00490039189
:104830008DF80B200193FFE70498006880690399C5
:104840000840401AB0FA80F040099DF80B108842E9
:1048500028D1FFE70198013018B3FFE7FCF7EAFE23
:104860000899401A0199884203D8FFE70198B8B91E
:10487000FFE70499486C40F0200048640499202028
:1048800081F841000499002081F84200FFE7049973
:10489000002081F84000FFE701208DF8170005E0B7
:1048A000FFE7C9E700208DF81700FFE79DF8170024
:1048B00006B080BD80B584B0029001910092FFE700
:1048C00002980068806900F004010020B0EB910FAD
:1048D00066D1FFE702980199009AFFF7F7FE20B131
:1048E000FFE701208DF80F005EE002980068806904
:1048F00000F020010120B0EB511F32D1FFE70298F8
:104900000068806900F004010120B0EB910F08D12C
:10491000FFE70298008D20B1FFE700208DF80F001F
:1049200042E0029800682021C16102980268506844
:104930004EF60003CFF6006318405060029A002044
:104940005064029A82F84110029981F84200FFE710
:104950000299002081F84000FFE701208DF80F0048
:1049600022E0FCF767FE0099401A0199884203D8BB
:10497000FFE7019898B9FFE70299486C40F02000E2
:1049800048640299202081F84100FFE70299002045
:1049900081F84000FFE701208DF80F0004E08FE769
:1049A00000208DF80F00FFE79DF80F0004B080BDD8
:1049B00080B584B0029001910092FFE702980068F0
:1049C000806900F020010020B0EB511F2ED1FFE7DD
:1049D00002980199009AFFF779FE20B1FFE70120C4
:1049E0008DF80F0026E0FCF725FE0099401A01998A
:1049F000884203D8FFE70198B8B9FFE70299486CED
:104A000040F0200048640299202081F8410002997A
:104A1000002081F84200FFE70299002081F8400061
:104A2000FFE701208DF80F0004E0C7E700208DF8B4
:104A30000F00FFE79DF80F0004B080BD80B584B083
:104A4000029001910092FFE702980068806900F0EF
:104A500002010020B0EB510F33D1FFE7029801991A
:104A6000009AFFF733FE20B1FFE701208DF80F0019
:104A70002BE00198013018B3FFE7FCF7DBFD00994C
:104A8000401A0199884203D8FFE70198B8B9FFE7B7
:104A90000299486C40F0200048640299202081F877
:104AA00041000299002081F84200FFE702990020AE
:104AB00081F84000FFE701208DF80F0005E0FFE7D7
:104AC000C2E700208DF80F00FFE79DF80F0004B04B
:104AD00080BD000080B590B000200F900E900D902A
:104AE0000C900B90FFE741F21400C4F20200016841
:104AF00041F400210160006800F400200A900A9847
:104B0000FFE7FFE741F21400C4F20200016841F43C
:104B100080010160006800F4800009900998FFE7B7
:104B2000FFE741F21400C4F20200016841F40031D1
:104B30000160006800F4003008900898FFE7FFE784
:104B400041F21400C4F20200016841F40011016056
:104B5000006800F4001007900798FFE7FFE741F2B4
:104B60001400C4F20200016841F480210160006871
:104B700000F4802006900698FFE741F20000C4F69A
:104B8000000004904FF47F41019100220392FCF752
:104B90003BFD0398012102910B910C900D904FF079
:104BA00090400BA90591FCF789FBDDF804C0029B3E
:104BB000039A04980599CDF82CC00C930D920E928F
:104BC000FCF77CFB10B080BD80B582B040F2B8002D
:104BD000C2F20000019045F20041C4F20001016000
:104BE00040F60E11C2F200014160002181600122F5
:104BF000C260016141618161C1610162FCF7D6FD62
:104C000018B1FFE7FBF746FFFFE740F2B800C2F23A
:104C100000000021FCF714FD18B1FFE7FBF73AFF95
:104C2000FFE740F2B800C2F200000021FCF754FD9B
:104C300018B1FFE7FBF72EFFFFE702B080BD0000D1
:104C400080B582B040F20410C2F20000019045F637
:104C50000001C4F20001016040F20B21416000211B
:104C600081600122C260016141618161C1610162B3
:104C7000FCF79CFD18B1FFE7FBF70CFFFFE740F2E4
:104C80000410C2F200000021FCF7DAFC18B1FFE7C3
:104C9000FBF700FFFFE740F20410C2F20000002122
:104CA000FCF71AFD18B1FFE7FBF7F4FEFFE702B0CF
:104CB00080BD000080B588B0002100910791069169
:104CC0000591049103910291019140F23C40C2F29E
:104CD000000040F20042C4F2000202604BF6803253
:104CE000426081606422C26001618161FEF760FC04
:104CF00018B1FFE7FBF7CEFEFFE74FF480500490BA
:104D000040F23C40C2F2000004A9FEF73FFD18B19A
:104D1000FFE7FBF7BFFEFFE700200190039040F2A2
:104D20003C40C2F2000001A9FEF7A6FB18B1FFE764
:104D3000FBF7B0FEFFE708B080BD000080B582B091
:104D400040F28840C2F20000019044F60041C4F2F3
:104D5000000101604FF41651416000218160C16083
:104D600001610C2242618161C16101624162FFF710
:104D7000DFF918B1FFE7FBF78DFEFFE702B080BD5A
:104D800080B540F25010C2F2000045F60041C4F276
:104D90000001016008214160022181600161002160
:104DA00081610162FDF7DEF818B1FFE7FBF772FEE3
:104DB000FFE780BDFFE7FEE7FFE7FEE788B007906B
:104DC00006910592079800F0070004900498C0F13E
:104DD0000700052803D3FFE70420019004E00498AE
:104DE000C0F107000190FFE7019803900498043098
:104DF000062803D8FFE70020009003E0049803385A
:104E00000090FFE70098029006980399012202FAA9
:104E100001F101390840029B984005999A40013AF6
:104E20001140084308B070477047000080B582B059
:104E30004FF60000C0F6030001A90122FBF708FFAE
:104E4000BDF8060040F2B001C2F20001086002B0F5
:104E500080BD00007047000080B582B000900098CF
:104E60000138B0F1807F03D3FFE70120019019E002
:104E7000009801384EF21401CEF2000108604FF0A4
:104E8000FF300F2101F0E8F84EF21801CEF20001D8
:104E9000002008604EF21002CEF2000207211160DD
:104EA0000190FFE7019802B080BD000080B5FCF7DB
:104EB000ABFF80BD80B5A0B016A801902821FBF7FC
:104EC0004BFA0020009015901490139012901190BE
:104ED00002A83C21FBF740FA0099019803221692A0
:104EE0004FF4A0221792189101211A9110211B91C1
:104EF00002211D914FF480311E914FF480111F91BA
:104F0000FDF75AFD18B1FFE7FBF7C4FDFFE70F20DF
:104F1000119002201290002013904FF480611491A0
:104F2000159011A80121FDF735FB18B1FFE7FBF73C
:104F3000B1FDFFE76820C0F2020002900020079058
:104F400009900A904FF48000109002A8FDF752F9E2
:104F500018B1FFE7FBF79EFDFFE720B080BD000022
:104F60004EF68851CEF20001086840F470000860E7
:104F70007047000080B540F23C40C2F20000FEF7EE
:104F8000CFFC80BD83B00290019102980068009030
:104F9000029842F60041C4F2010188421DD0FFE7A9
:104FA0000298B0F1804F18D0FFE7029840F200411C
:104FB000C4F20001884210D0FFE7029840F60001D9
:104FC000C4F20001884208D0FFE7029843F2004192
:104FD000C4F2010188420AD1FFE7009820F0700076
:104FE000009001984168009808430090FFE70298FC
:104FF00042F60041C4F20101884235D0FFE7029831
:10500000B0F1804F30D0FFE7029840F20041C4F287
:105010000001884228D0FFE7029840F60001C4F260
:105020000001884220D0FFE7029843F20041C4F219
:105030000101884218D0FFE7029844F20001C4F24F
:105040000101884210D0FFE7029844F20041C4F207
:105050000101884208D0FFE7029844F60001C4F23B
:10506000010188420AD1FFE7009820F440700090C7
:105070000198C168009808430090FFE7009820F06D
:1050800080000199496908430090009802990860DE
:10509000019880680299C862019800680299886244
:1050A000029842F60041C4F20101884220D0FFE795
:1050B000029843F20041C4F20101884218D0FFE790
:1050C000029844F20001C4F20101884210D0FFE7C7
:1050D000029844F20041C4F20101884208D0FFE77F
:1050E000029844F60001C4F20101884205D1FFE7AD
:1050F0000198006902990863FFE70299012048615D
:1051000003B0704785B00490039102920193049814
:1051100080680090009820F47F40009003980299E6
:10512000019A41EA02210143009808430090009847
:105130000499886005B0704783B00290019102988D
:1051400080680090009820F070000090019800990D
:10515000084340F00700009000980299886003B06F
:105160007047000085B00490039102920498006A91
:1051700000900499086A20F0010008620498806990
:105180000190019820F0F00001900299019840EA06
:1051900001100190009820F00A00009003990098F7
:1051A0000843009001980499886100980499086266
:1051B00005B0704785B00490039102920499086A83
:1051C00020F0100008620498806901900498006A39
:1051D0000090019820F4704001900299019840EAF3
:1051E00001300190009820F0A000009003990098F1
:1051F00040EA011000900198049988610098049990
:10520000086205B07047000080B540F28840C2F2E5
:105210000000FEF727FD80BD81B00090009890F857
:105220002400C00758B1FFE700980068406820F4E8
:105230000030009A1168926A10434860FFE70098B6
:1052400090F82400800700280BD5FFE7009800683D
:10525000406820F48030009A1168D26A1043486098
:10526000FFE7009890F82400400700280BD5FFE7DF
:1052700000980068406820F48020009A1168126B42
:1052800010434860FFE7009890F8240000070028CA
:105290000BD5FFE700980068406820F40040009AB2
:1052A0001168526B10434860FFE7009890F82400A3
:1052B000C00600280BD5FFE700980068806820F43E
:1052C0008050009A1168926B10438860FFE7009845
:1052D00090F82400800600280BD5FFE700980068AE
:1052E000806820F40050009A1168D26B10438860E7
:1052F000FFE7009890F82400400600281CD5FFE73F
:1053000000980068406820F48010009A1168126CC0
:10531000104348600098006CB0F5801F0BD1FFE788
:1053200000980068406820F4C000009A1168526C30
:1053300010434860FFE7FFE7009890F8240000065C
:1053400000280BD5FFE700980068406820F4002093
:10535000009A1168926C10434860FFE701B07047F3
:1053600080B584B0029002990020C1F88000FCF75B
:1053700061F901900298006800680007002812D5C2
:10538000FFE70298019B6A466FF07E4111604FF47F
:105390000011002200F00AFD20B1FFE703208DF884
:1053A0000F002BE0FFE70298006800684007002824
:1053B00012D5FFE70298019B6A466FF07E411160AB
:1053C0004FF48001002200F0F1FC20B1FFE7032040
:1053D0008DF80F0012E0FFE70299202088670299FC
:1053E000C867029900200866FFE70299002081F84B
:1053F0007400FFE700208DF80F00FFE79DF80F0015
:1054000004B080BD80B582B001900198406A0090E0
:1054100000990020A1F85A000099A1F852000098C4
:10542000FEF71CFC02B080BD84B00390FFE7FFE7ED
:105430000398006850E8000F20F490700290FFE796
:1054400002990398026842E800100028F0D1FFE7B3
:10545000FFE7FFE7FFE70398006850E8020F20F03E
:1054600001000190FFE701990398026842E80210E9
:105470000028F0D1FFE7FFE70398006E012814D160
:10548000FFE7FFE7FFE70398006850E8000F20F010
:1054900010000090FFE700990398026842E80010AE
:1054A0000028F0D1FFE7FFE7FFE703992020C86756
:1054B0000399002008660399486604B0704700000D
:1054C00080B582B00190FFE7FFE70198006850E8DF
:1054D000000F20F040000090FFE70099019802685B
:1054E00042E800100028F0D1FFE7FFE701992020F3
:1054F00088670199002088660198FFF757F802B085
:1055000080BD000080B586B005900598B0F85C00BD
:10551000ADF80E000598C06F222840F08280FFE7AA
:1055200005980068808CADF80C000598406D0490DB
:10553000BDF80C00BDF80E100840049908800599CC
:10554000486D023048650599B1F85A000138A1F854
:105550005A000598B0F85A00002861D1FFE7FFE72C
:10556000FFE70598006850E8000F20F49070029063
:10557000FFE702990598026842E800100028F0D180
:10558000FFE7FFE7FFE7FFE70598006850E8020F35
:1055900020F001000190FFE701990598026842E8B8
:1055A00002100028F0D1FFE7FFE705992020C86727
:1055B0000599002048660598006E01282BD1FFE769
:1055C000059900200866FFE7FFE70598006850E8A6
:1055D000000F20F010000090FFE700990598026886
:1055E00042E800100028F0D1FFE7FFE705980068C7
:1055F000C06900F010010120B0EB111F05D1FFE7D9
:105600000598016810200862FFE70598B0F8581067
:10561000FEF71AFB03E00598FEF784FEFFE7FFE7BD
:1056200006E005980168886940F008008861FFE796
:1056300006B080BD80B586B005900598B0F85C00D6
:10564000ADF812000598C06F222840F08080FFE777
:1056500005980068808CADF81000BDF810009DF82A
:10566000121008400599496D08700599486D013080
:1056700048650599B1F85A000138A1F85A00059813
:10568000B0F85A00002861D1FFE7FFE7FFE705986F
:10569000006850E8000F20F490700390FFE7039932
:1056A0000598026842E800100028F0D1FFE7FFE704
:1056B000FFE7FFE70598006850E8020F20F00100BF
:1056C0000290FFE702990598026842E8021000285C
:1056D000F0D1FFE7FFE705992020C8670599002072
:1056E00048660598006E01282BD1FFE70599002038
:1056F0000866FFE7FFE70598006850E8000F20F014
:1057000010000190FFE701990598026842E8001037
:105710000028F0D1FFE7FFE705980068C06900F0B6
:1057200010010120B0EB111F05D1FFE705980168BA
:1057300010200862FFE70598B0F85810FEF784FAC9
:1057400003E00598FEF7EEFDFFE7FFE706E00598AA
:105750000168886940F008008861FFE706B080BDF5
:1057600080B58EB00D9000208DF827000D998868C7
:105770000B694A69C9691843104308430C900D9896
:105780000068006849F20C6188430C9908430D9940
:10579000096808600D980068406820F440500D9A30
:1057A0001168D268104348600D9880690C900D987C
:1057B000016A0C9808430C900D980068806820F4EA
:1057C00030600C9908430D9909688860FFE70D98CF
:1057D000006843F60001C4F20101884225D1FFE7C9
:1057E00041F23000C4F20200006800F003000146FC
:1057F0000791032814D80799DFE801F0020A0E0682
:1058000001208DF82D000FE002208DF82D000BE017
:1058100004208DF82D0007E008208DF82D0003E00E
:1058200010208DF82D00FFE7E7E00D98006844F2A6
:105830000041C4F2000188422FD1FFE741F230005D
:10584000C4F20200006800F440300146069178B1CD
:10585000FFE70698B0F5803F12D0FFE70698B0F555
:10586000003F11D0FFE70698B0F5403F04D00FE0AD
:1058700000208DF82D000FE002208DF82D000BE0A8
:1058800004208DF82D0007E008208DF82D0003E09E
:1058900010208DF82D00FFE7AEE00D98006844F66B
:1058A0000001C4F2000188422FD1FFE741F230002D
:1058B000C4F20200006800F440200146059178B16E
:1058C000FFE70598B0F5802F12D0FFE70598B0F5F7
:1058D000002F11D0FFE70598B0F5402F04D00FE05E
:1058E00000208DF82D000FE002208DF82D000BE038
:1058F00004208DF82D0007E008208DF82D0003E02E
:1059000010208DF82D00FFE775E00D98006844F633
:105910000041C4F2000188422FD1FFE741F230007C
:10592000C4F20200006800F440100146049178B10E
:10593000FFE70498B0F5801F12D0FFE70498B0F598
:10594000001F11D0FFE70498B0F5401F04D00FE00E
:1059500000208DF82D000FE002208DF82D000BE0C7
:1059600004208DF82D0007E008208DF82D0003E0BD
:1059700010208DF82D00FFE73CE00D98006845F2FF
:105980000001C4F2000188422FD1FFE741F230004C
:10599000C4F20200006800F440000146039178B1AF
:1059A000FFE70398B0F5800F12D0FFE70398B0F53A
:1059B000000F11D0FFE70398B0F5400F04D00FE0BF
:1059C00000208DF82D000FE002208DF82D000BE057
:1059D00004208DF82D0007E008208DF82D0003E04D
:1059E00010208DF82D00FFE703E010208DF82D002A
:1059F000FFE7FFE7FFE7FFE7FFE7FFE70D98C06975
:105A0000B0F5004F59D1FFE79DF82D0001460291F6
:105A100008281DD80299DFE801F005090D1B131BAA
:105A20001B1B1700FCF742FF089017E0FCF750FF24
:105A3000089013E041F20020C0F27A0008900DE0D7
:105A4000FCF758FF089009E04FF40040089005E08B
:105A50000020089001208DF82700FFE7089858B330
:105A6000FFE7089840000D99496800EB5100B0FB32
:105A7000F1F080B20A900A98102818D3FFE7BDF819
:105A80002A00A0B9FFE70A9820F00F00ADF82E0019
:105A90000A9800F00E01BDF82E0040EA5100ADF862
:105AA0002E00BDF82E000D990968C86003E00120A2
:105AB0008DF82700FFE7FFE748E09DF82D0001463D
:105AC000019108281DD80199DFE801F005090D1B97
:105AD000131B1B1B1700FCF7E9FE089017E0FCF7EF
